:1000000078C1000093C1000091C100000C9430122F
:100010008DC100008BC1000089C100000C941F122B
:1000200085C1000083C1000081C100007FC10000C4
:100030007DC100007BC1000079C1000077C10000D4
:1000400075C1000073C1000071C100006FC10000E4
:100050000C94D5116BC1000069C1000067C100009C
:1000600065C1000063C1000061C100005FC1000004
:100070005DC100005BC1000059C100003037313361
:100080002E323032332D31322D30332B3433233175
:10009000000001050414101115FF0F4D0B4D0FF654
:1000A0000AB40C8F0A7C0A640A500A4209B80B543D
:1000B0000B460AF509C6089108EE07A9076107B4BF
:1000C000066A062106D90594050A05D0049804623B
:1000D000042E04D003A4037A0351030B03E902ADF9
:1000E0000290025D02430218020202DC01C901A86B
:1000F0000197017B016C01540147013A012E012354
:1001000001180114010A0106010101FD00FD00FFB3
:1001100000FF00FF00FF00FF00FF00FF00FF00FFE7
:1001200000FF00FF00FF00FF00FF00FF00FF00FFD7
:1001300000FF00FF00FF00FF00FF00FF00FF00FFC7
:1001400000FF00FF00FF00FF00FF00FF00FF00FFB7
:1001500000FF00FF00FF00FF00FF00FF00FF00FFA7
:1001600000FF00FF00FF00FF00FF00FF00FF00FF97
:1001700000FF00FF00FF00FF00FF00FF00FF00FF87
:1001800000FF00FF00FF00FF00FF00FF00FF00FF77
:1001900000FF00FF00FF00FF00FF00FF00FF00FF67
:1001A00000FF00FF00FF00FF00FF00FF00FF00FF57
:1001B00000FF00FF00FF00FF00FF00FF00FF00FF47
:1001C00000FF00FF00000000000000000000000031
:1001D000000000000000000000000000000000001F
:1001E000000000000000000000000000000000000F
:1001F00000000000000000000000000000000000FF
:1002000000000000000000000000000000000000EE
:1002100000000000000000000000000000000000DE
:1002200002030507080A0C0E10121416181A1D1FD7
:100230002225272A2D3033363A3D4144484C50542C
:10024000585D61666B70757A7F858B91979DA3AAC7
:10025000B1B7BFC6CDD5DDE5EEF6FF010102020361
:1002600003040506060809090A0A0B0C0D0E0F10F7
:1002700011121313141516171718191A1A1B1B1C11
:100280001C1D1D1E1E1F1F20202121222324252668
:1002900028292B2D2F3235383C3F43474B4F54599B
:1002A0005E63686E747A81888F969EA6AEB7C0CA68
:1002B000D3DEE8F3FFFFFFFFFFFFFFFFFFFFFFFFBE
:1002C000FFFFFFFFFFFFFFFFFFFFFFFFFFFFFFFF3E
:1002D000FFFFFFFFFFFFFFFFFFFFFFFFFFFFFFFF2E
:1002E000FFFFFFFFFFFFFFFFFFFFFFFFFFFFFFFF1E
:1002F000000011241FBECFEFCDBFDFE3DEBF18E348
:10030000A0E0B8E3E6EFFBE202C005900D92AA334D
:10031000B107D9F728E3AAE3B8E301C01D92A13DD4
:10032000B207E1F70E9440120C94D21569CEF894FE
:1003300098ED94BF809361008091630080FDFCCFB5
:1003400078940895E0E0F6E0828581608287808578
:10035000816080870895EEE9F8E320E030E0908145
:10036000992339F02F5F3F4F339620313105B9F78C
:100370000BC0F901EE0FFF1F2E0F3F1FF901E256D0
:10038000F74C80836183728308950F931F93CF93FB
:10039000DF93D0919E38DD2351F100919F38109169
:1003A000A038C0917B38C150C7FD0DC0EC2FEE0FB7
:1003B000FF0BE458F74C0190F081E02DB8018D2F30
:1003C00009958111F0CFEEE9F8E383818083848180
:1003D000958181839283339688E3EB3CF807A9F7F4
:1003E0001092CB381092CC381092CD38D2CFDF910A
:1003F000CF911F910F910895BC018091D038ABCF60
:100400001092D0381092CE381092CF3881E080937D
:100410006B3808950F931F93CF93C82F0CEC18E0FF
:10042000CC2349F085E083DFC8010197F1F781E033
:100430007EDFC150F5CFCF911F910F910895E0E07D
:10044000F6E083E88083838180628383A0EAB0E062
:100450008C918F7880648C938DE1868382E0818398
:1004600083E5828310929A3810929B386BCF82B1C9
:1004700085FB882780F991E0892780937438089557
:10048000E0910638F09107383196FB70F460E09304
:100490000638F093073880916E388B5A80936E3807
:1004A000E49180916E388E0F0895FF920F931F9301
:1004B000CF93DF9300D01F92CDB7DEB72091A8ABCA
:1004C0003091A9AB4091AAAB29833A834B838E012B
:1004D0000F5F1F4F20E030E0682F70E0E1E0F0E0B8
:1004E00098E0F92ED8019D918D01A901440F551F67
:1004F000DB0102C0B595A7954A95E2F7AD014370BF
:1005000081F04130C9F4A92FB0E0AF0102C0440F1F
:10051000551F9A95E2F740934204A05BBB4FFC92B3
:1005200015C0AF0102C0440F551F9A95E2F74093E2
:100530004104409346040AC0DF0102C0AA0FBB1F5A
:100540009A95E2F7A0934104A09345042F5F3F4F93
:100550002330310539F62396CDBFDEBFDF91CF9131
:100560001F910F91FF900895811182E09ECF81111C
:100570008AE09BCF811188E098CF811188E295CFE6
:10058000811180E292CF811182E28FCF81118AE2C4
:100590008CCF81E0089590E0FC01E55AFD4FE49195
:1005A0004E2F50E0FC01EB53FE4FE4912E2F30E034
:1005B000FC01EE0FFF1FE756FF4F8591949140938A
:1005C0003A0A50933B0A2093380A3093390A8093B1
:1005D000360A9093370A80917138811104C01092C5
:1005E000200A1092210A089590E0FC01E55AFD4F7F
:1005F000E4912E2F30E0FC01EB53FE4FE491F0E04C
:1006000080913A0A90913B0A892B19F42F3F3105CA
:1006100051F080913A0A90913B0A8F3F910541F445
:100620002115310529F420933A0A30933B0A1DC065
:1006300080913A0A90913B0A8217930730F4809197
:100640003A0A90913B0A01960CC080913A0A909127
:100650003B0A2817390748F480913A0A90913B0ADF
:10066000019780933A0A90933B0A8091380A9091BF
:10067000390A8E179F0730F48091380A9091390A11
:1006800001960CC08091380A9091390AE817F90751
:1006900048F48091380A9091390A01978093380A7A
:1006A0009093390A80913A0A90913B0A28173907AA
:1006B00041F42091380A3091390A81E0E217F307BA
:1006C00009F080E00895CF93DF93CDB7DEB726978A
:1006D000CDBFDEBF90910C3820918C3830918D3891
:1006E0002A543B4009F492E0843019F4609318389E
:1006F0001FC06623E9F0823019F427E9261B622F18
:1007000026E0EBEAFBEADE01119601900D922A95B4
:10071000E1F79E012F5F3F4F280F311D280F311D3C
:10072000F90132970190F081E02DE90FF11D60830E
:100730002696CDBFDEBFDF91CF910895BF92CF92B5
:10074000DF92EF92FF920F931F93CF93DF93EC0111
:1007500040910C3890911738992311F0E2E001C0D4
:10076000E42FF0E0E45FF74C228120930938858183
:1007700080930838E92FF0E0E45FF74C3185622F71
:1007800070E0442349F0313039F49B01280F311DCA
:10079000C9019595879538C0C617D707A4F1682F6A
:1007A00070E06C177D0784F1411102C08C2F2CC0C2
:1007B000821B032F10E001501109E82EF12CC70114
:1007C000B8010E946915609368386695E62FF0E0DD
:1007D000822FC12CD12CB12CB316B1F0C601B801B7
:1007E0000E945515822F860FCE0CDF1CAE01481BD0
:1007F000510957FF03C0519541955109E417F50779
:100800001CF4B394E9CF822FDF91CF911F910F9108
:10081000FF90EF90DF90CF90BF900895ECE0F8E369
:10082000868580930A388389808B809372380895F7
:1008300080916438882351F0909171389093673893
:1008400080936338109261381092623808950F9344
:100850001F93CF93209190389FEF920F933710F40E
:1008600080E098C0E82FEF7090916538911123C017
:10087000C82FC295CF708091323838E0839FC00175
:10088000112468177907C0F430916A38432F50E07B
:10089000481759078CF4332379F091E08091703830
:1008A000893108F490E081E0C23009F080E0892BC2
:1008B000C1E0C80F36C0C2E0E73088F1E730A9F4E4
:1008C00000913F3810E00F5F1F4FDADD65E00E94B6
:1008D00049159801290F311DC90166E070E00E9499
:1008E000691580933F38FC013AC0E830D1F480911B
:1008F0007338882311F02FE001C023E030E0622339
:100900007323672B51F480913F3890E0019666E0A5
:1009100070E00E94691580933F38E0913F38F0E025
:100920001EC080917338882381F080E0E82FF0E0CA
:10093000EC53F4459081291710F08E5FF7CF319773
:10094000E081F0E0EF56FF4F0CC0CB019695879504
:1009500063E070E00E945515FC01EE0FFF1FEE569C
:10096000FF4FE491C33071F480913E3890E00196DE
:1009700063E170E00E94551580933E38DC01AF546E
:10098000B445CC91CC2321F0C13019F0EE0F01C059
:10099000E0E08E2FCF911F910F9187CD81E00895D8
:1009A000823019F4609332380895611160932D38C4
:1009B0000895662389F0813061F480918E3890919A
:1009C0002F38891B681B60932F3882E080930B3887
:1009D00003C0635E60932E3880912E38873418F000
:1009E00086E480932E380895609333380895E82F75
:1009F000F0E0E45FF74C67A308957FEF780F409134
:100A00001D3850911E38662359F021E030E002C0B5
:100A1000220F331F7A95E2F7CA01822B932B0AC06B
:100A200081E090E002C0880F991F7A95E2F78095E7
:100A30008423952380931D3890931E380895CF9377
:100A4000DF938CE098E380936C3890936D38F89442
:100A5000C0E0D0E0E0916C38F0916D38EC0FFD1FF4
:100A600060812196CE010E94B515CE32D10591F755
:100A700065EA80E090E00E94B5157894DF91CF910F
:100A80000895CF9310929C388091100690916E3803
:100A9000890F80936E3880919138882309F44CC176
:100AA0001092913890919A3880917338882349F048
:100AB000809100068E7F8093000610929D381092E0
:100AC0009A38911166C080910B38882329F02091C3
:100AD0009638309197381AC02091733880919238A7
:100AE000909193382223B9F020919638309197381D
:100AF00063E0369527956A95E1F7280F391F73E073
:100B0000969587957A95E1F7281B390B20939238B3
:100B10003093933801C09C01C0912D38CC0FC45044
:100B200054E0369527955A95E1F740E050E060E0B3
:100B300070EC83E090E00E947C15C20FC093903867
:100B400080915838882311F0815007C0C43738F499
:100B500060E070E084E0FFDB85E0809358388091AE
:100B600073388111E0C08091A0008F7880618093FC
:100B7000A0008EE18093060682E08093010683E464
:100B80008093020681E080939A3810929B38DADBDA
:100B9000CAC0913009F0C7C080910B38882341F05A
:100BA00080919838909199388093943890939538A3
:100BB0002091201180912111A0919438B091953805
:100BC00030E48302A019B109112430E00E949E157F
:100BD000DC01CB01905EAF4FBF4F892F9A2FAB2F17
:100BE000BB2720912F38FC0136E0F695E7953A9522
:100BF000E1F7022E000C330BA901435151404E0F77
:100C00005F1F40938E3850938F38BC0145E0769536
:100C100067954A95E1F780910B3881112AC0809140
:100C20004738E82FF0E0EE0FFF1FE85BF74C4081FC
:100C30005181DB01A41BB50BAD01608371838F5F14
:100C400087708093473880912E3890E08D5E9E4F5C
:100C5000821B930B880F991F9B01281B390BC9011D
:100C60009D01220F331F220F331F820F931F23E09A
:100C70000EC0E8E4F8E36193719388E3E835F80780
:100C8000D1F7CDCF009709F00196215029F0181621
:100C90001906C4F70197F9CF18161906E4F457FDA1
:100CA00039C02091463812160CF1880F991FBC01EB
:100CB0006350710977FF02C06F5F7F4F759567952D
:100CC0001616170614F061E070E088E1861B809329
:100CD000463885E026C08C3FAFEF9A07DCF457FF1B
:100CE00019C02091463827FF05C02450281B2093A7
:100CF000463818C024EE281B20934638209190389F
:100D0000263780F06CEF7FEF681B790B7595679540
:100D100086E007C080919038853720F060E070E071
:100D200087E019DB8CDB80910B38882329F08091D8
:100D30000B38815080930B38CF910895CF93C82FF3
:100D400080917338811101C0B0DBC1110DC01092C8
:100D50003A0A10923B0A1092380A1092390A1092FD
:100D6000200A1092210A0EC0E091723884E0E89FB8
:100D7000F0011124EA52F4450190F081E02D8FEF4B
:100D80008C0F099580917138C81380937038C09387
:100D90007138C0936F38C53010F485E005C0CB3092
:100DA00010F483E001C081E0CF91C1CACF93C0911C
:100DB000713889E18C0F873908F080E0BFDF82E06D
:100DC00029DB8C2FCF91BACFCF93C091713880E0BF
:100DD000B5DF83E01FDB8C2FCF91B0CF80936938D4
:100DE00090917138981718F4282F291B02C0292FC9
:100DF000281B30915B38311106C0309121383323E4
:100E000069F0223058F080935C3884E080935A383F
:100E100081E080935B3890935D3808958FCFCF93B6
:100E2000DF9390917238981759F0C82FD09171388C
:100E300080E084DFC09372388D2FDF91CF917ECF19
:100E4000DF91CF910895813019F410921A380895E6
:100E5000823019F460931B380895833019F460933D
:100E600019380895843019F460930D380895853049
:100E700011F4609321380895883039F41092643861
:100E8000109261381092623845C0813B81F48091A4
:100E900064388150833008F03FC083E08093643829
:100EA00080936338109261381092623835C0853B68
:100EB000B1F4CB016EE370E00E945515892B51F51A
:100EC000809164388A3F30F58B5F809364388093DB
:100ED0006338109261381092623868DF1BC081302D
:100EE000D9F48091613890916238019688382EE06B
:100EF000920728F480936138909362380BC0109267
:100F000061381092623880916438882319F08150DA
:100F10008093643880E0089581E00895FF920F93F4
:100F20001F93CF93DF938C01EB01F42E80918C38CB
:100F300090918D38892B31F0E0918C38F0918D387B
:100F400089E0099500938C3810938D38012B39F086
:100F5000E0918C38F0918D38BE018F2D099581E09C
:100F600080936B38DF91CF911F910F91FF9008957F
:100F7000CF93DF93E0917B38EE2359F0E150E0937B
:100F80007B38F0E0EE0FFF1FE458F74CC081D181B1
:100F900002C0C0E0D0E0E0917B38EE2341F0F0E009
:100FA000EE0FFF1FE658F74C8081918102C080E070
:100FB00090E04AE060E070E0B1DFCE01DF91CF91D8
:100FC0000895883029F4109259381092403815C08D
:100FD000813001F590914038911107C06032710560
:100FE00070F1809340380CDA2AC0913089F46B3B61
:100FF000710528F082E08093403880E01FC06115C1
:101000007105E9F06270862F880F880F8E5E16C01A
:10101000AFDF15C0813811F0813E89F491E09093E3
:101020004038813E21F480915938865F03C0809119
:1010300059388F5F80935938E3D98BE47FDE80E0A5
:1010400008959C0190917B38983088F4E92FF0E066
:10105000EE0FFF1FE458F74C208331839F5F90937E
:101060007B3848E0C9015ADF80917B3808958FEFC3
:1010700008950F931F93CF93DF93EC018B0178DFDB
:10108000B801CE01DF91CF911F910F91DACF813C52
:1010900029F460E070E08AED9CE006C0823C39F4FF
:1010A00060E070E08CE69BE0E4DF80E0089581E0A2
:1010B0000895843011F580918C3890918D382FE00F
:1010C0008B36920729F469E170E082EC98E013C056
:1010D000825C984061F490917138923040F0892F91
:1010E000869596959695890F79DE80E0089560E063
:1010F00070E08AED9CE0BDDFF8CF81E00895813C8F
:1011000029F460E070E08AED9CE006C0823C31F496
:1011100060E070E087E498E0ACDF16C0813B49F402
:10112000CB016EE370E00E945515892B69F43EDE19
:101130000BC0813E59F4CB016EE370E00E9455155F
:101140006F5F60932C387BDC80E0089581E0089528
:10115000813C29F460E070E08AED9CE006C0823CAE
:1011600031F460E070E08FE798E083DF07C0873BF1
:1011700039F460E070E086E59BE063DF80E008958D
:1011800081E00895BF92CF92DF92EF92FF920F938A
:101190001F93CF93DF93182FEB0180911C3880931E
:1011A0007238D0900938F090083880910C38882334
:1011B00019F0B090683802C0BB24B394C0900D38C9
:1011C000809117388111C0901838CC2051F031E04F
:1011D000C31621F080910A388F1518F0F6E9EF2E2A
:1011E00001C0EF2C00916438BE01812F45DE2091B3
:1011F0006438222339F001110CC08091713880933A
:10120000673807C0002329F060E070E08AED9CE0B9
:1012100036C0812F8D7F8830D9F4109260381A3013
:1012200019F4C0910A38D0E08D2D90E08C179D07FD
:1012300038F48F2D90E0C817D90710F4C0930A38FE
:10124000CE017CDACBDD81E08093053800E0ACC1D3
:10125000113CD1F2123C59F4809171388E1510F482
:101260008E2D02C080910A38B9DDE2DAEFCF143C4E
:1012700041F480E063DD60E070E08FEC9BE0F9DE3C
:10128000E5CF8FE4810F823008F061C080910C3887
:10129000882341F0CE0168E170E00E945515892B4A
:1012A00031F0D4CF6091143870E0CE01F6CF0091C8
:1012B0005B380111CBCF80917138209761F4123BDC
:1012C00011F48FEF05C08F15E0F7D81648F181E0D3
:1012D0008093053825C02091143830E066E371E032
:1012E000269FA001279F500D369F500D11244C17AB
:1012F0005D0710F48F1528F76CE672E0269FA001B9
:10130000279F500D369F500D11244C175D0740F458
:10131000D81630F04BDD60E070E08FEC9BE0A9DE8A
:10132000C0917138209105383B2D2303C001112451
:101330008C0F911D03DA80930A38C81719F0F81240
:1013400001C042DD80910A3849DD72DA2DC18FE19A
:10135000810F823020F480910538819575CF11304E
:1013600009F084C0A99711F410930538222371F174
:10137000C0916738C29F90011124E0916338F0E07A
:10138000C901BF010E946915462FC9018C1B910933
:10139000BF010E946915242F261B8091613890910E
:1013A00062386EE370E00E945515269FC001279FAA
:1013B000900D11246CE370E00E945515461B642FBC
:1013C00009F461E060936F3860936938C0916F38B9
:1013D000209171388C2F90E0821B910960914338E5
:1013E000709144386F5F7F4F6093433870934438F7
:1013F000009709F42BCF97FF05C0233830F040E465
:1014000050E005C040E052E002C040E051E0569597
:10141000479597FD0196959587950097C1F74617D3
:10142000570708F013CFC21710F4CFEF03C02C17E3
:1014300010F4C1E0C20FE091723884E0E89FF0013F
:101440001124EA52F4450280F381E02D8FEF8C0FD6
:101450000995882331F0D0916F388C2F6FDCD093B1
:101460006F381092433810924438F0CE1530A1F402
:10147000809171388D3308F4E9CE90E08C1B9D0B80
:101480008C33910534F0873991056CF186E990E051
:101490002AC08CE390E027C01630B9F490917138DF
:1014A00080916938981708F0D1CEC90FD11D90E00E
:1014B0008C179D0734F0CC33D10524F4CCE3D0E075
:1014C00001C0EC01C0936F38C1CE173079F4909110
:1014D0006F3880917138891710F48F5F04C09817A6
:1014E00008F0B4CE815080936F38B0CE133C19F021
:1014F000163C41F517C060911D3870911E3880E090
:1015000090E020E0AB01082E02C0569547950A9462
:10151000E2F74170240F01968830910599F7223047
:1015200008F041C081E090910C38911180E08093E7
:101530000C3885DA49DC8091713890E0FFD88093CF
:101540000A3892CE0091173801112DC0133B49F48F
:10155000CD2B09F07BCECC2011F086E9E82E8E2D24
:1015600004C0133E21F480910A3838DC1DC0173BBB
:1015700029F460E070E086E49BE013C01A3C59F463
:101580008091713880931A388091723880931F3817
:1015900056DA0CDC09C01A3B31F460E070E08EE4EE
:1015A0009BE04FDD01C001E0802FDF91CF911F91C3
:1015B0000F91FF90EF90DF90CF90BF9008950F9321
:1015C0001F93CF938B01C42F883091F48091723890
:1015D000809342381092413880E0B0DB80917438BB
:1015E00081114FC0809141388F5F8093413833C063
:1015F000982F907F903B21F5809141384817E8F073
:101600008150883040F490916638992321F0909170
:101610007238891304DCC8016DE570E00E9455152D
:10162000069749F4809141388F5F80934138C817FD
:1016300040F188E303C082E101C080E07FDB21C08C
:10164000903E79F4809141388823A1F0481790F0BA
:1016500080914238E4DB60E070E081EE97E0F1DCFD
:1016600010C08A3049F46091593880914138F901AD
:101670000995E5D97DDC05C0893019F4809142389F
:10168000CEDB80E0CF911F910F91089523E633E0E8
:1016900043E095CF23E633E044E091CF23E237E007
:1016A00045E08DCF20ED34E042E089CF29ED34E0F4
:1016B00042E085CF24EF34E041E081CF27EF34E0F2
:1016C00043E07DCF91E0909366382DEF34E048E021
:1016D00076DF109266380895CF93C0911738C11104
:1016E00023C0813C29F460E070E08AED9CE006C0F4
:1016F000823C31F460E070E088EA98E0BADC15C022
:10170000833C51F48091203890E0019687709927AE
:101710008093203894D909C0873B31F460E070E0B1
:1017200082E59BE08EDC01C0C1E08C2FCF91089553
:10173000CF93833C21F54091723860911D387091B0
:101740001E38842F98E0282F30E02F5F3F4F2770FE
:101750003327822FFB0102C0F695E7952A95E2F721
:10176000E0FF0AC04817B9F05ADB809172388093C5
:101770001C3865D9C0E010C0915029F7F3CFC09153
:101780001738C11108C0893B31F460E070E082E68F
:101790009BE057DC01C0C1E08C2FCF9108950F93DF
:1017A0001F93CF93DF93C82F8B01873BC9F480E051
:1017B000C5DA81E080936538C8018F739927892B3A
:1017C00009F09EC090913138892F8F708F5F292F3B
:1017D000207F6BE00E944915922B9093313890C086
:1017E00080798039B1F420910E3890910F388C2F88
:1017F0008F70813021F4822F921748F407C08091B6
:101800001A38811104C0822F291708F4892F96DA1B
:101810000EC0803811F480E091DAC83041F41092A3
:101820006A3860E070E08091313811D89CC0C130D6
:1018300039F40931110508F4A2C0C093733860C0AF
:10184000C330E1F480916A388F3F19F08F5F809345
:101850006A3880911A38882309F452C040911B38A5
:1018600022EC31E0429FC001439F900D11240817E4
:10187000190708F445C00E940E0442C0C33C31F46D
:1018800095DA60E070E08AED9CE014C0C43C21F47D
:1018900060910A3870E00CC0C43B31F495DA1092C4
:1018A000D03861E070E004C0C53C31F466E970E016
:1018B00082EC98E0DEDB63C0C33B81F4C8016EE3D9
:1018C00070E00E945515892B09F04DC060E070E072
:1018D00083ECDF91CF911F910F912ACFC73CB1F4D8
:1018E00080913138982F92959F709F5F937040E15F
:1018F000949F900111248F70822B809331382CC0DB
:10190000B801809131380E94270439C0C73E21F4C4
:101910001092653894D833C0C83C29F5809131388D
:10192000482F42954F7050913938411104C0952F7E
:1019300092959F7001C090E060E1969F9001112404
:101940008F70822B8093313890E1499F9001112450
:101950005F70252B2093393860E070E00E942704E7
:101960006ED824DA0CC0D0911738D1110AC0CA3B06
:1019700041F460E070E08AE59BE063DB03C0D0E007
:1019800001C0D1E08D2FDF91CF911F910F9108956C
:1019900090912138992369F080935C3888E0809396
:1019A0005A3881E080935B388091713880935D383C
:1019B0000895C4C9CF93DF93EB018830A1F480E090
:1019C000E7DF80915B38C82B10926A3880911C3811
:1019D0008093723810926438CD2B09F05EC081E09C
:1019E000809373385AC0813059F46931710508F415
:1019F00054C0C0915B38C11150C08093733826C168
:101A0000833069F580916A388F3F19F08F5F80933A
:101A10006A3880911A38882371F040911B3822EC83
:101A200031E0429FC001439F900D1124C817D90790
:101A300010F00E940E04BE01809130380E942704ED
:101A400080913338882349F142EC51E0849F900122
:101A5000859F300D11242C173D07F8F452C0813BAF
:101A600091F481E090E00E949E0392DF809119380A
:101A7000811113C080910C38811102C0689768F001
:101A800061E070E02AC0813ED9F3813841F4809151
:101A90000A3890E00E949E037BDFC0E0D7C0813C03
:101AA00021F460910A3870E018C0823B81F41092F2
:101AB0006A3880910D3890911738911180911838BB
:101AC000811103C086E990E0E5CF86E9E5CF823E4B
:101AD00059F0823C29F466E970E082EC98E00CC091
:101AE000833921F410925B3880E0D6CF833C31F407
:101AF00060E070E08CE69BE0BCDACFCF843C31F450
:101B000055D960E070E08FEC9BE0F6CF8D3B49F457
:101B1000F89491E088ED84BF909300017894A895A3
:101B2000FFCF8F3C29F460E070E08EEC94E0E4CFCE
:101B30008A3B89F4CD2B09F072C0C0911738CC23B1
:101B400021F034D9109217383FC060E070E08AE489
:101B50009BE077DA7BC0833B29F460E070E08BE6A2
:101B60009FE0CACF873C81F480913038982F9295BE
:101B70009F709F5F937040E1949F900111248F703C
:101B8000822B8093303843C0873BD1F481E080932F
:101B90006538CB018F739927892B61F49091303888
:101BA000892F8F708F5F292F207F6BE072D7922B48
:101BB00090933038BE01809130380E9427046DCF59
:101BC000873E29F4109265380E941F0566CF883C35
:101BD00031F580913038482F42954F705091383808
:101BE000411104C0952F92959F7001C090E060E173
:101BF000969F900111248F70822B8093303890E152
:101C0000499F900111245F70252B2093383860E0A4
:101C100070E00E9427040E941F05C8D83ECFC091E3
:101C20001738C11112C08A3C39F4C0D881E08093C2
:101C300017380E941F050AC0863C39F4B7D860E007
:101C400070E084E591E115DA01C0C1E08C2FDF91ED
:101C5000CF9108950F931F93CF9310927638809170
:101C6000CE389091CF389C012F5F3F4F88279078D6
:101C7000822B932B8093CE389093CF38C0917438B9
:101C80000E943702C81731F110927338809374386C
:101C90009091D038882359F0892F80699F709F30A8
:101CA00009F08F5F8093D03880E090E00DC0892FDD
:101CB0008F7E95FD02C0806801C0806C8093D03813
:101CC0008091CE389091CF380E94FC011092CE388E
:101CD0001092CF380091CE381091CF388091733860
:101CE0008823B1F0B80183E00E94AB010E94C501D6
:101CF0000134110528F00F701127012B09F047C09E
:101D00001092453881E080939D380E941F0232C0B6
:101D1000C091D0388C2F807F803B19F460E070E058
:101D200001C0B80181E00E94AB01C4FF13C0C5FF30
:101D300002C0C8010CC008311105E0F01092CE3885
:101D40001092CF38C062C093D03880E090E00E94FB
:101D5000FC0110C0CC2371F0C5FD0AC00231110591
:101D600048F0C064C093D03880E090E00E94FC014D
:101D70000E940002C0914538C11105C00E94A20115
:101D800081E080939138CF5FCF71C0934538CF9178
:101D90001F910F91089580919C3881110E944105F7
:101DA00080917638811156CF0895EF92FF920F936C
:101DB0001F93CF93DF93EC0102E418E080E1E82E5B
:101DC00082E0F82E2097D9F080916B38811119C0EC
:101DD00080917138853028F485E00E949701C70111
:101DE00004C081E00E949701C8010197F1F781E0EA
:101DF0000E949701D0DF0E94C5012197E3CF81E0C7
:101E000001C080E0DF91CF911F910F91FF90EF9083
:101E100008950F931F93CF93DF93C82F882311F05A
:101E200006EA02C00AE0C1E0D091723810E0809169
:101E300020380E940F0789E10E949E06D0937238D5
:101E4000C801B3DF809120380E940F0780E00E9414
:101E50009E06D09372388AEF90E0A7DFC15039F721
:101E60008D2F0E940F078AE992E0DF91CF911F9199
:101E70000F919BCFCF93DF9364E60BD6282F892F4A
:101E80006AE007D6EC01222341F0822FC2DF8C2FBB
:101E9000C0DF8D2FDF91CF91BCCFC111F8CFF9CF2B
:101EA000CF93DF93D82FC3E080910A380E949E061B
:101EB00088EC90E07ADFDD2319F080E991E075DFAE
:101EC00080E00E949E0688EC90E06FDFC15061F7D1
:101ED000DF91CF910895FF920F931F93CF93DF93DC
:101EE000D82F8B01C0915E3881E080936038C43078
:101EF00009F0ECC0F09064388D2F0E943C07FF2061
:101F000051F080916438811106C060E070E08AED84
:101F10009CE0AFD8DBC0D83021F481E08093033857
:101F2000D7C0D23C19F410926438E5C0D13BC1F45B
:101F300090910238012B49F4963610F08FEF03C0D0
:101F4000923018F481E08093033880910338890F30
:101F500011F481E04BC1873608F448C186E646C1DA
:101F6000D13E31F4809103388195809303380EC1BE
:101F7000D23B61F481E08093033880910238823053
:101F800008F40CC181508093023808C1D13009F0A7
:101F9000B6C00932110511F4D093033890913D3841
:101FA000892F880F97FD809529E0829FC001112419
:101FB00030913C38232F220F37FD20958091013836
:101FC000289F90011124232F290F90913B38892FAE
:101FD000880F97FD809590910038899FC00111244A
:101FE000822F890F6091023870E0680F711D809117
:101FF00064388130B9F4809161389091623825E07D
:10200000969587952A95E1F724E730E0A901481BCA
:10201000590B469FC001479F900D569F900D11246C
:10202000B90143D5862F0E949E0600FD08C00E947C
:102030004002817090913D38890F80933D38909196
:102040003C3880913A38890F80933C380E94400296
:1020500065E21FD580913B38980F90933B380E94E2
:1020600040028F7331F40E9440026DE012D59093CC
:102070003A38C0910138CC2339F00E9440028F7366
:1020800019F4C150C09301380E944002811108C068
:102090000E9440026EE0FDD49093013810923C38CB
:1020A000C0910038C33038F00E9440028F7119F49B
:1020B000C150C09300380E9440028F7709F09AC047
:1020C0000E94400287708093003894C0D83041F459
:1020D0008091223880935E3881E08093043888C0F4
:1020E000D13C39F460E070E08AED9CE00E94390850
:1020F0007FC0D23C31F48C2F90E0019617C0D13CC8
:1021000089F3D33C71F4809172388F5F87700E949D
:102110000F07EC2FF0E0E45FF74C80917238878B6B
:102120005EC0D43C59F48C2F90E0059666E070E0D8
:10213000D0D48093223880935E3851C0D13B21F5B2
:10214000C23090F400FD54C0EC2FF0E0E45FF74C97
:10215000858D90910438891B883020F08F3F69F578
:102160008EEF2BC088E029C0C53009F041C09091A6
:102170002B3880910438890F823010F482E026C019
:10218000893720F188E722C0D13E31F480910438AC
:1021900081958093043823C0D23BF9F481E0809389
:1021A0000438C23060F400FD23C0EC2FF0E0E45F9F
:1021B000F74C858D8F3FE1F08F5F858F19C0C5305B
:1021C000B9F480912B38833018F0815080932B38EC
:1021D00080912B380E949E060BC0D23E19F40E94BB
:1021E0001F0506C0D13031F081E010C08093023865
:1021F00080E00CC00932110519F481E080930438A5
:1022000080916E38080F00936E38F2CFDF91CF9136
:102210001F910F91FF9008950F931F93CF93DF931A
:10222000D82F8B01883031F480916038882311F0E9
:1022300088E051DE8D2F8079803961F481E08093D0
:102240005F38C0916038C1110CC080910A380E947B
:102250009E0624C0803839F410925F3880E00E94D6
:102260009E06C0E01BC0D130C1F4C0915F38CC23C2
:1022700059F0809160388823A1F3B80181E0DF91A3
:10228000CF911F910F9127CE80E00E945502073316
:10229000114038F3D093733801C0C1E08C2FDF9127
:1022A000CF911F910F910895FF920F931F93CF939A
:1022B000DF93D82F8B01F0900A388079803951F55F
:1022C000ED2FEF70E43020F010925F38C0E036C0A0
:1022D00091E090935F38F0E0E45FF74C87A12FEF37
:1022E000280F263948F480930A381092603880917C
:1022F0001C38809372380CC0909360388739D0F0C6
:1023000090E08759910966E070E0E3D380935E38EE
:10231000C0E00BC0803841F410925F3880E00E942A
:102320009E0681E080936B38C1E080915F388823FE
:1023300029F001C0C0E0B8018D2F6EDFF0920A389D
:10234000D83021F4B80188E02ADA28C0D13039F435
:1023500080915F38811120C0B80181E004C0D33082
:1023600041F4B80183E0DF91CF911F910F91FF906D
:1023700016CAD63C49F40E94D60660E070E08AEDA9
:102380009CE00E94390808C0D73B41F460E070E04F
:102390008EE59BE00E94210880E001C08C2FDF9138
:1023A000CF911F910F91FF9008951F920F920FB63A
:1023B0000F9211242F933F938F939F93AF93BF93CB
:1023C000EF93FF9381E080930B0680919B388823E5
:1023D00031F1E0919A38809110069091110624E035
:1023E000880F991F2A95E1F7F0E0EE0FFF1FDF013C
:1023F000AA56B74C8D939C93EE56F74C20813181B1
:102400002817390710F42F5F3F4F8217930710F4F6
:10241000215031092083318381E080939C3881E011
:1024200080939B38FF91EF91BF91AF919F918F91D6
:102430003F912F910F900FBE0F901F9018951F92F4
:102440000F920FB60F9211248F9381E08093530166
:10245000809376388F910F900FBE0F901F90189534
:102460001F920F920FB60F9211248F931D9A81E045
:10247000809375388F910F900FBE0F901F90189515
:10248000F89480914000877F8093400088EDA89564
:1024900084BF90910001907F9093000121E030E093
:1024A00084BF2093610083E084B98EE088B988E01E
:1024B000809310048093110480931204809313047A
:1024C0008093140499E090931504809316048093EC
:1024D00017048093320480933304809334048093F0
:1024E00035048093500487E38093010A91E0909330
:1024F000000A2FEF30E02093360A3093370A80919C
:1025000012048160809312049093520180915101D2
:102510008111FCCF81E4809350010E941F027894C6
:1025200081E00E940A0260E070E089E598E00E9484
:10253000210810926B380E94D6060E943702811142
:1025400014C08CE098E380936C3890936D38F894C5
:1025500080E090E002D3853A09F044C000916C38E5
:1025600010916D38C1E0D0E034C0C0E08C2F0E94E3
:102570009E0683E190E019DC8C2F86950E949E06D2
:1025800083E190E012DC0E9437028823B9F0CF5F2C
:10259000C03461F760918E3880912F38681B81E0DC
:1025A0000E94D9040E941F05C6E98C2F0E949E0636
:1025B00084E090E0FADBC150C1F7C3CFCC2309F42B
:1025C000C0CF8C2F0E949E068DE090E0EEDBC150C4
:1025D000F5CFCE01C2D2F80181938F012196CF327F
:1025E000D105B9F7789480911A3881110E940E04B0
:1025F00060E070E088E99BE00E94210861E070E003
:102600008AED9CE00E9421087724739442E0242EF6
:1026100051E4352E442443946CEFA62E63E0B62E8D
:1026200077E0572EEDE06E2EF8EE8F2EF3E09F2E22
:10263000AAEDCA2EACE0DA2E0E94C501809179384D
:1026400090917A38009751F060917738709178388E
:102650000E9439081092793810927A388091733834
:10266000882309F464C080E00E949E0670925201A3
:10267000809151018111FCCFF9E5F09350018091D7
:1026800000068E7F809300060E9437028111FCCFE6
:102690000E940002809112048160809312041092C3
:1026A0009C38109276381092753880917338882350
:1026B00069F180919D38882329F080915000897FAD
:1026C000826004C080915000897F846080935000B4
:1026D00080915000816080935000889580915000D7
:1026E0008E7F8093500080917538811110927338DD
:1026F00080919C38882321F0409291380E944105B6
:1027000080917638882389F2A5DACFCF20920B38D2
:1027100080911204887F809312040E941F0270929D
:102720005201809151018111FCCF3092500133DB75
:1027300010926B3880918C3890918D3824E08E3CCB
:10274000920719F5CCE7D0E0FE01849180538031E7
:1027500010F45FDB11C010E0812F81708295880F2B
:10276000807E0E949E0680E190E01FDB1F5F193192
:1027700099F78AE992E019DB8CE291E016DB219669
:10278000F0E0C039DF0701F7FDC02FE08B3692077C
:1027900099F0E1E18C309E0729F0F1E184359F0743
:1027A00009F0D8C020916038213009F0D3C02091C1
:1027B0005F38222309F4CEC0C0915E38EC2FF0E0E0
:1027C000E45FF74C878980937238C23009F138F0A2
:1027D000C33009F43DC0C53009F49FC02DCFD58D5D
:1027E00086E90E949E06C11109C0DA3220F4C501B3
:1027F0000197F1F707C081E090E003C08D2F869527
:1028000090E0D3DA80E00E949E068D2F90E02EC1EA
:10281000D0910A38C0E0C11102C081E003C0C530C8
:1028200019F485E00E940F078D2F0E949E0681E219
:1028300090E0BBDA80E00E949E0682E490E0B5DA88
:10284000CF5FCA3041F780911C3880937238F4CE44
:102850000E9440028F73E82EF12C0E944002652DE9
:1028600018D1C1E0D0E08E0102C0000F111F9A956F
:10287000E2F70E94400265E00CD102C0CC0FDD1FE0
:102880009A95E2F70C0F1D1F0E94400290E0B801DC
:1028900020D1E801C80FD91FC739D10514F0C6E906
:1028A000D0E08C2F0E949E06C7017FDA8E0133E0B4
:1028B000159507953A95E1F7011101C001E010E087
:1028C000C70173DAC01BD10BD7FF02C0C0E0D0E054
:1028D0008C2F0E949E060E944002837039F4C7012B
:1028E00064DACE01959587950E949E06C230D10587
:1028F0003CF70E944002662DCCD0C1E0D0E002C07F
:10290000CC0FDD1F9A95E2F70E94400290E0BE01D5
:10291000CCD0C80FD91F80E0A6C0C0912B38CC0FF7
:10292000C73908F0C6E9D4E08C2F0E949E0685E0E6
:1029300090E03BDA80912B380E949E0681E490E083
:1029400034DAD15089F780ED92E02FDA80E00E94EE
:102950009E0672CE2BE08C369207E9F488EE93E067
:1029600024DA809190388695869584DA9091903813
:102970009370892F880F9695890F7CDA809117388C
:10298000882381F0C0927938D0927A3810927738C3
:102990001092783851CEE8E0883A9E0731F4809161
:1029A0008E3868DA88EE93E061C0F8E08F379F07D1
:1029B000C1F48091743881113FCE80910A380E9411
:1029C0009E0684E690E0F1D980E00E949E06209168
:1029D0002C38289DC001299D900D11248456910901
:1029E00045C08754984049F480E05ADA81E058DACB
:1029F00080E056DA80ED97E039C080912138882355
:102A0000B9F180915B38882399F1209171389091C8
:102A10005C3829130AC0822F0E949E0610925B38F0
:102A200080915D388093703807CE60915A382917AD
:102A300060F4892F821B2DD0811101C081E0820FAB
:102A40000E949E068AE090E011C08EE1689FA0017E
:102A5000112460915D38691B70E0CA013AD0EB0126
:102A600021968FEF820F0E949E06CE019ED9E4CD63
:102A700080915000897F8093500080915000816048
:102A8000809350008895809150008E7F80935000F5
:102A9000D3CD991B79E004C0991F961708F0961BB7
:102AA000881F7A95C9F780950895AA1BBB1B51E131
:102AB00007C0AA1FBB1FA617B70710F0A61BB70BAE
:102AC000881F991F5A95A9F780959095BC01CD0153
:102AD000089597FB072E16F4009406D077FD08D0D2
:102AE000E4DF07FC05D03EF4909581959F4F089553
:102AF000709561957F4F0895A1E21A2EAA1BBB1B0A
:102B0000FD010DC0AA1FBB1FEE1FFF1FA217B307B9
:102B1000E407F50720F0A21BB30BE40BF50B661FCF
:102B2000771F881F991F1A9469F760957095809593
:102B300090959B01AC01BD01CF010895A29FB0010A
:102B4000B39FC001A39F700D811D1124911DB29FE1
:102B5000700D811D1124911D089503D08081992746
:102B60000895FC01E050FC4E0895262FFADF008006
:102B7000021611F004D0019701970895262FAF9304
:102B8000BF93E0E0F0E1328131FDFDCFDC01A050E8
:102B9000BC4E2C933DE934BF23E020830196BF91C6
:082BA000AF910895F894FFCFF6
:102BA8000203010E38113814380201000000000039
:102BB8000000010000000000000000010000740196
:102BC80084028C0394049C05A406B007FF07CB027B
:102BD800F402B402C902B702C902BA02C902BD02AC
:0E2BE800C902C002C902C302C902C602C90264
:102BF600080E1801010100046E0F320200010F0FCA
:102C06000A6E6E8201070701000014000001000031
:102C160007010400000000000029433202073200C9
:0A2C260019390400781E9800E6C674
:00000001FF
