:1000000074C100008FC100008DC100000C94BB10B2
:1000100089C1000087C1000085C100000C94AA10AE
:1000200081C100007FC100007DC100007BC10000D4
:1000300079C1000077C1000075C1000073C10000E4
:1000400071C100006FC100006DC100006BC10000F4
:100050000C94601067C1000065C1000063C100001E
:1000600061C100005FC100005DC100005BC1000014
:1000700059C1000057C1000055C10000303731346C
:100080002E323032332D31322D30332B3433233175
:1000900000FF0F4D0B4D0FF60AB40C8F0A7C0A645B
:1000A0000A500A4209B80B540B460AF509C60891D2
:1000B00008EE07A9076107B4066A062106D9059468
:1000C000050A05D004980462042E04D003A4037A20
:1000D0000351030B03E902AD0290025D02430218D3
:1000E000020202DC01C901A80197017B016C0154E5
:1000F0000147013A012E012301180114010A0106EA
:10010000010101FD00FD00FF00FF00FF00FF00FFF7
:1001100000FF00FF00FF00FF00FF00FF00FF00FFE7
:1001200000FF00FF00FF00FF00FF00FF00FF00FFD7
:1001300000FF00FF00FF00FF00FF00FF00FF00FFC7
:1001400000FF00FF00FF00FF00FF00FF00FF00FFB7
:1001500000FF00FF00FF00FF00FF00FF00FF00FFA7
:1001600000FF00FF00FF00FF00FF00FF00FF00FF97
:1001700000FF00FF00FF00FF00FF00FF00FF00FF87
:1001800000FF00FF00FF00FF00FF00FF00FF00FF77
:1001900000FF00FF00FF00FF00FF00FF00FF00FF67
:1001A00000FF00FF00FF00FF00FF00FF00FF00FF57
:1001B00000FF00FF00FF00FF00FF00FF0000000045
:1001C000000000000000000000000000000000002F
:1001D000000000000000000000000000000000001F
:1001E000000000000000000000000000000000000F
:1001F00000000000000000000000000000000000FF
:1002000000000000000000000000000000000000EE
:10021000000000000000000002030507080A0C0EA1
:1002200010121416181A1D1F2225272A2D303336B6
:100230003A3D4144484C5054585D61666B70757A44
:100240007F858B91979DA3AAB1B7BFC6CDD5DDE5BC
:10025000EEF6FF0101020203030405060608090980
:100260000A0A0B0C0D0E0F1011121313141516178A
:100270001718191A1A1B1B1C1C1D1D1E1E1F1F20C0
:10028000202121222324252628292B2D2F323538E1
:100290003C3F43474B4F54595E63686E747A818884
:1002A0008F969EA6AEB7C0CAD3DEE8F3FFFFFFFF6E
:1002B000FFFFFFFFFFFFFFFFFFFFFFFFFFFFFFFF4E
:1002C000FFFFFFFFFFFFFFFFFFFFFFFFFFFFFFFF3E
:1002D000FFFFFFFFFFFFFFFFFFFFFFFFFFFFFFFF2E
:1002E000FFFFFFFFFFFFFFFF000011241FBECFEF46
:1002F000CDBFDFE3DEBF18E3A0E0B8E3EEE8F8E24D
:1003000002C005900D92A833B107D9F728E3A8E3FE
:10031000B8E301C01D92AB3CB207E1F70E94CB10DD
:100320000C9436146DCEF89498ED94BF80936100D0
:100330008091630080FDFCCF78940895E0E0F6E0C2
:100340008285816082878085816080870895E8E961
:10035000F8E320E030E09081992339F02F5F3F4FA0
:10036000339620313105B9F70BC0F901EE0FFF1FAD
:100370002E0F3F1FF901E856F74C8083618372838B
:1003800008950F931F93CF93DF93D0919838DD2377
:1003900051F10091993810919A38C0917538C15037
:1003A000C7FD0DC0EC2FEE0FFF0BEA58F74C019084
:1003B000F081E02DB8018D2F09958111F0CFE8E98A
:1003C000F8E383818083848195818183928333964E
:1003D00088E3E53CF807A9F71092C5381092C638B3
:1003E0001092C738D2CFDF91CF911F910F9108950E
:1003F000BC018091CA38ABCF1092CA381092C8386D
:100400001092C93881E08093663808950F931F9346
:10041000CF93C82F0CEC18E0CC2349F085E083DFA4
:10042000C8010197F1F781E07EDFC150F5CFCF9190
:100430001F910F910895E0E0F6E083E880838381C7
:1004400080628383A0EAB0E08C918F7880648C9383
:100450008DE1868382E0818383E5828310929438E4
:10046000109295386BCF82B185FB882780F991E097
:10047000892780936E380895E0910638F091073807
:100480003196FB70F460E0930638F0930738809162
:1004900069388B5A80936938E491809169388E0F5E
:1004A0000895882349F0813069F480E28093220422
:1004B00088E080933504089580E28093210480933E
:1004C0002604089580E280932104809325040895F2
:1004D000811182E0E6CF81E0089590E0FC01ED5AC1
:1004E000FD4FE4914E2F50E0FC01E354FE4FE491A8
:1004F0002E2F30E0FC01EE0FFF1FEF56FF4F8591CE
:10050000949140933A0A50933B0A2093380A3093CF
:10051000390A8093360A9093370A80916B3881119B
:1005200004C01092200A1092210A089590E0FC0164
:10053000ED5AFD4FE4912E2F30E0FC01E354FE4FC5
:10054000E491F0E080913A0A90913B0A892B19F4EA
:100550002F3F310551F080913A0A90913B0A8F3F2D
:10056000910541F42115310529F420933A0A30937D
:100570003B0A1DC080913A0A90913B0A821793076B
:1005800030F480913A0A90913B0A01960CC0809118
:100590003A0A90913B0A2817390748F480913A0AA1
:1005A00090913B0A019780933A0A90933B0A80917D
:1005B000380A9091390A8E179F0730F48091380AD3
:1005C0009091390A01960CC08091380A9091390AAD
:1005D000E817F90748F48091380A9091390A019791
:1005E0008093380A9093390A80913A0A90913B0A95
:1005F0002817390741F42091380A3091390A81E0EF
:10060000E217F30709F080E00895CF93DF93CDB7A9
:10061000DEB72697CDBFDEBF90910C38209186388B
:100620003091873826543A4009F492E0843019F426
:10063000609318381FC06623E9F0823019F427E967
:10064000261B622F26E0E0E7F8EADE011196019012
:100650000D922A95E1F79E012F5F3F4F280F311D24
:10066000280F311DF90132970190F081E02DE90F3B
:10067000F11D60832696CDBFDEBFDF91CF91089537
:10068000BF92CF92DF92EF92FF920F931F93CF937F
:10069000DF93EC0140910C3890911738992311F0B9
:1006A000E2E001C0E42FF0E0E45FF74C2281209308
:1006B0000938858180930838E92FF0E0E45FF74C32
:1006C0003185622F70E0442349F0313039F49B01C9
:1006D000280F311DC9019595879538C0C617D707D2
:1006E000A4F1682F70E06C177D0784F1411102C0FE
:1006F0008C2F2CC0821B032F10E001501109E82E13
:10070000F12CC701B8010E94CD1360936338669540
:10071000E62FF0E0822FC12CD12CB12CB316B1F012
:10072000C601B8010E94B913822F860FCE0CDF1CC0
:10073000AE01481B510957FF03C05195419551091E
:10074000E417F5071CF4B394E9CF822FDF91CF9122
:100750001F910F91FF90EF90DF90CF90BF90089581
:10076000ECE0F8E3868580930A388389808B809358
:100770006C38089580916038882351F090916B38DF
:100780009093623880935F3810925D3810925E3893
:10079000089581E00895611160932C3808956623CF
:1007A00089F0813061F48091883890912E38891BCE
:1007B000681B60932E3882E080930B3803C0635E21
:1007C00060932D3880912D38873418F086E480931B
:1007D0002D380895609330380895E82FF0E0E45FF5
:1007E000F74C64A308957FEF780F40911D38509126
:1007F0001E38662359F021E030E002C0220F331F7B
:100800007A95E2F7CA01822B932B0AC081E090E02F
:1008100002C0880F991F7A95E2F78095842395236B
:1008200080931D3890931E380895CF93DF938CE00A
:1008300098E38093673890936838F894C0E0D0E0EC
:10084000E0916738F0916838EC0FFD1F60812196C8
:10085000CE010E941914CB32D10591F765EA80E0F0
:1008600090E00E9419147894DF91CF910895CF936E
:10087000109296388091100690916938890F809374
:10088000693880918B38882309F44CC110928B38D9
:100890009091943880916D38882349F080910006BA
:1008A0008E7F8093000610929738109294389111A1
:1008B00066C080910B38882329F0209190383091C0
:1008C00091381AC020916D3880918C3890918D3874
:1008D0002223B9F0209190383091913863E0369519
:1008E00027956A95E1F7280F391F73E0969587954C
:1008F0007A95E1F7281B390B20938C3830938D388B
:1009000001C09C01C0912C38CC0FC45054E03695E6
:1009100027955A95E1F740E050E060E070EC83E005
:1009200090E00E94E013C20FC0938A38809154383F
:10093000882311F0815007C0C43738F460E070E0BC
:1009400084E005DD85E08093543880916D38811115
:10095000E0C08091A0008F7880618093A0008EE13C
:100960008093060682E08093010683E4809302066A
:1009700081E08093943810929538E0DCCAC09130C1
:1009800009F0C7C080910B38882341F080919238DC
:100990009091933880938E3890938F3820912011C6
:1009A00080912111A0918E38B0918F3830E483026C
:1009B000A019B109112430E00E940214DC01CB011E
:1009C000905EAF4FBF4F892F9A2FAB2FBB2720913F
:1009D0002E38FC0136E0F695E7953A95E1F7022EC0
:1009E000000C330BA901435151404E0F5F1F409340
:1009F000883850938938BC0145E0769567954A95CB
:100A0000E1F780910B3881112AC080914338E82F9B
:100A1000F0E0EE0FFF1FEC5BF74C40815181DB01F2
:100A2000A41BB50BAD01608371838F5F87708093CA
:100A3000433880912D3890E08D5E9E4F821B930B42
:100A4000880F991F9B01281B390BC9019D01220F9B
:100A5000331F220F331F820F931F23E00EC0E4E4E5
:100A6000F8E36193719388E3E435F807D1F7CDCFCC
:100A7000009709F00196215029F018161906C4F7BD
:100A80000197F9CF18161906E4F457FD39C02091E3
:100A9000423812160CF1880F991FBC01635071097E
:100AA00077FF02C06F5F7F4F759567951616170623
:100AB00014F061E070E088E1861B8093423885E0A5
:100AC00026C08C3FAFEF9A07DCF457FF19C0209186
:100AD000423827FF05C02450281B2093423818C0F5
:100AE00024EE281B2093423820918A38263780F044
:100AF0006CEF7FEF681B790B7595679586E007C0F3
:100B000080918A38853720F060E070E087E01FDC54
:100B100092DC80910B38882329F080910B3881502A
:100B200080930B38CF910895CF93C82F80916D3863
:100B3000811101C0B6DCC1110DC010923A0A1092A9
:100B40003B0A1092380A1092390A1092200A109229
:100B5000210A0EC0E0916C3884E0E89FF001112476
:100B6000EA57F7450190F081E02D8FEF8C0F099542
:100B7000C0936B38C0936A38C53010F485E005C067
:100B8000CB3010F483E001C081E0CF91CCCBCF9388
:100B9000C0916B3889E18C0F873908F080E0C4DFA1
:100BA00082E034DC8C2FCF91BFCFCF93C0916B38D4
:100BB00080E0BADF83E02ADC8C2FCF91B5CF809321
:100BC000643890916B38981718F4282F291B02C0AD
:100BD000292F281B30915738311106C03091213808
:100BE000332369F0223058F08093583884E08093A2
:100BF000563881E08093573890935938089594CFB0
:100C0000CF93DF9390916C38981759F0C82FD091FB
:100C10006B3880E089DFC0936C388D2FDF91CF91E6
:100C200083CFDF91CF910895813019F410921A3853
:100C30000895823019F460931B380895833019F4B5
:100C4000609319380895843019F460930D3808952D
:100C5000853011F460932138089590918A38943743
:100C600010F480E011C0943828F4669561706350E8
:100C700086230AC0982F9F70933030F06F70E62F54
:100C8000F0E0EA58F74580810CCC883039F41092B6
:100C9000603810925D3810925E3845C0813B81F417
:100CA000809160388150833008F03FC083E08093AA
:100CB000603880935F3810925D3810925E3835C08E
:100CC000853BB1F4CB016EE370E00E94B913892B30
:100CD00051F5809160388A3F30F58B5F80936038A2
:100CE00080935F3810925D3810925E3850DF1BC0E1
:100CF0008130D9F480915D3890915E3801968838C2
:100D00002EE0920728F480935D3890935E380BC0F4
:100D100010925D3810925E3880916038882319F007
:100D200081508093603880E0089581E00895FF92BB
:100D30000F931F93CF93DF938C01EB01F42E8091DF
:100D4000863890918738892B31F0E0918638F09180
:100D5000873889E009950093863810938738012BEE
:100D600039F0E0918638F0918738BE018F2D0995D2
:100D700081E080936638DF91CF911F910F91FF90B2
:100D80000895CF93DF93E0917538EE2359F0E15049
:100D9000E0937538F0E0EE0FFF1FEA58F74CC08182
:100DA000D18102C0C0E0D0E0E0917538EE2341F07F
:100DB000F0E0EE0FFF1FEC58F74C8081918102C0EC
:100DC00080E090E04AE060E070E0B1DFCE01DF91CA
:100DD000CF910895883029F41092553810923C38FC
:100DE00015C0813001F590913C38911107C06032F7
:100DF000710570F180933C38FFDA2AC0913089F494
:100E00006B3B710528F082E080933C3880E01FC086
:100E100061157105E9F06270862F880F880F8E5E6C
:100E200016C0AFDF15C0813811F0813E89F491E022
:100E300090933C38813E21F480915538865F03C001
:100E4000809155388F5F80935538D6DA8BE46CDE0D
:100E500080E008959C0190917538983088F4E92FCE
:100E6000F0E0EE0FFF1FEA58F74C208331839F5FBD
:100E70009093753848E0C9015ADF8091753808951C
:100E80008FEF08950F931F93CF93DF93EC018B01A6
:100E900078DFB801CE01DF91CF911F910F91DACFAA
:100EA000813C29F460E070E083EA9BE006C0823C6C
:100EB00039F460E070E088E69AE0E4DF80E00895CD
:100EC00081E00895843011F58091863890918738BB
:100ED0002DE0883F920729F469E170E08BEC97E000
:100EE00013C08B5C974061F490916B38923040F066
:100EF000892F869596959695890F61DE80E00895F5
:100F000060E070E083EA9BE0BDDFF8CF81E0089508
:100F1000813C29F460E070E083EA9BE006C0823CFB
:100F200031F460E070E080E597E0ACDF16C0813B13
:100F300049F4CB016EE370E00E94B913892B69F488
:100F400026DE0BC0813E59F4CB016EE370E00E94B7
:100F5000B9136F5F60932B3868DC80E0089581E0FF
:100F60000895813C29F460E070E083EA9BE006C0CC
:100F7000823C31F460E070E088E897E083DF07C0EE
:100F8000873B39F460E070E082E59AE063DF80E05F
:100F9000089581E00895BF92CF92DF92EF92FF9281
:100FA0000F931F93CF93DF93182FEB0180911C3881
:100FB00080936C38D0900938F090083880910C38C4
:100FC000882319F0B090633802C0BB24B394C0905A
:100FD0000D38809117388111C0901838CC2051F00D
:100FE00031E0C31621F080910A388F1518F0F6E928
:100FF000EF2E01C0EF2C00916038BE01812F45DE3D
:1010000020916038222339F001110CC080916B3897
:101010008093623807C0002329F060E070E083EA23
:101020009BE036C0812F8D7F8830D9F410925C38D8
:101030001A3019F4C0910A38D0E08D2D90E08C1749
:101040009D0738F48F2D90E0C817D90710F4C0938E
:101050000A38CE0115DBB3DD81E08093053800E06E
:101060009FC1113CD1F2123C59F480916B388E151E
:1010700010F48E2D02C080910A38A1DD7BDBEFCF0A
:10108000143C41F480E050DD60E070E08CEC9AE0CC
:10109000F9DEE5CF8FE4810F823008F061C08091E6
:1010A0000C38882341F0CE0168E170E00E94B9134A
:1010B000892B31F0D4CF6091143870E0CE01F6CF97
:1010C000009157380111CBCF80916B38209761F494
:1010D000123B11F48FEF05C08F15E0F7D81648F1D9
:1010E00081E08093053825C02091143830E066E314
:1010F00071E0269FA001279F500D369F500D1124AF
:101100004C175D0710F48F1528F76CE672E0269FE8
:10111000A001279F500D369F500D11244C175D07DD
:1011200040F4D81630F033DD60E070E08CEC9AE0EB
:10113000A9DEC0916B38209105383B2D2303C001F7
:1011400011248C0F911D9CDA80930A38C81719F06E
:10115000F81201C02ADD80910A3831DD0BDB20C195
:101160008FE1810F823020F480910538819575CF11
:10117000113009F084C0A99711F410930538222387
:1011800071F1C0916238C29F90011124E0915F38E3
:10119000F0E0C901BF010E94CD13462FC9018C1B8D
:1011A0009109BF010E94CD13242F261B80915D3829
:1011B00090915E386EE370E00E94B913269FC001E3
:1011C000279F900D11246CE370E00E94B913461B19
:1011D000642F09F461E060936A3860936438C091C9
:1011E0006A3820916B388C2F90E0821B91096091B6
:1011F0003F38709140386F5F7F4F60933F387093F6
:101200004038009709F42BCF97FF05C0233830F002
:1012100040E450E005C040E052E002C040E051E050
:101220005695479597FD0196959587950097C1F737
:101230004617570708F013CFC21710F4CFEF03C0BB
:101240002C1710F4C1E0C20FE0916C3884E0E89FE5
:10125000F0011124EA57F7450280F381E02D8FEF6A
:101260008C0F0995882331F0D0916A388C2F5CDC83
:10127000D0936A3810923F3810924038F0CE153033
:10128000A1F480916B388D3308F4E9CE90E08C1B8B
:101290009D0B8C33910534F0873991056CF186E90B
:1012A00090E02AC08CE390E027C01630B9F490910A
:1012B0006B3880916438981708F0D1CEC90FD11DD2
:1012C00090E08C179D0734F0CC33D10524F4CCE3A7
:1012D000D0E001C0EC01C0936A38C1CE173079F478
:1012E00090916A3880916B38891710F48F5F04C031
:1012F000981708F0B4CE815080936A38B0CE133C72
:1013000019F0163CD9F40AC080911D3881FB992749
:1013100090F98170890F823009F441C081E0909189
:101320000C38911180E080930C387FDA3EDC80919C
:101330006B3890E0A5D980930A389FCE009117387A
:1013400001112DC0133B49F4CD2B09F088CECC20E0
:1013500011F086E9E82E8E2D04C0133E21F4809111
:101360000A382DDC1DC0173B29F460E070E082E4F0
:101370009AE013C01A3C59F480916B3880931A3864
:1013800080916C3880931F3850DA01DC09C01A3B19
:1013900031F460E070E08AE49AE05CDD01C001E0D5
:1013A000802FDF91CF911F910F91FF90EF90DF90F1
:1013B000CF90BF9008950F931F93CF938B01C42FAD
:1013C000883091F480916C3880933E3810923D388B
:1013D00080E0AADB80916E3881114FC080913D384A
:1013E0008F5F80933D3833C0982F907F903B21F5DD
:1013F00080913D384817E8F08150823040F4909158
:101400006138992321F090916C388913F9DBC80178
:101410006DE570E00E94B913069749F480913D385C
:101420008F5F80933D38C81740F188E303C082E1A5
:1014300001C080E079DB21C0903E79F480913D3895
:101440008823A1F0481790F080913E38D9DB60E006
:1014500070E08AEE96E0FEDC10C08A3049F46091BC
:10146000553880913D38F9010995DFD98ADC05C0EE
:10147000893019F480913E38C3DB80E0CF911F9111
:101480000F91089525E033E043E095CF25E033E068
:1014900044E091CF24E136E045E08DCF2BEC33E002
:1014A00041E089CF2FEC33E042E085CF2AEE33E0F4
:1014B00041E081CF2DEE33E043E07DCF91E090938A
:1014C000613823EF33E042E076DF1092613808950F
:1014D000CF93C0911738C11123C0813C29F460E03B
:1014E00070E083EA9BE006C0823C31F460E070E08B
:1014F00081EB97E0C7DC15C0833C51F48091203824
:1015000090E0019681709927809320388ED909C088
:10151000873B31F460E070E08EE49AE09BDC01C030
:10152000C1E08C2FCF910895CF93833C29F5909102
:101530006C3860911D3870911E38892F40E0282F3B
:1015400030E02F5F3F4F21703327822FFB0102C015
:10155000F695E7952A95E2F7E0FF0AC09817C1F0E3
:101560004FDB80916C3880931C385FD9C0E011C08C
:101570004111F4CF41E0E3CFC0911738C11108C049
:10158000893B31F460E070E08EE59AE063DC01C0F5
:10159000C1E08C2FCF9108950F931F93CF93DF93CA
:1015A000C82F8B0180798039B1F420910E38909149
:1015B0000F388C2F8F70813021F4822F921748F4CE
:1015C00007C080911A38811104C0822F291708F4AE
:1015D000892FAADA13C0803819F480E0A5DA05C093
:1015E000C83019F41092653887C0C13039F4093118
:1015F000110508F48DC0C0936D388AC0C330F9F46A
:10160000809165388F3F19F08F5F809365388091A6
:101610001A38882369F040911B3822EC31E0429F50
:10162000C001439F900D11240817190708F098D89E
:1016300080912F38602F869586950FDB69C0C33C5B
:1016400031F4A5DA60E070E083EA9BE014C0C43CAA
:1016500021F460910A3870E00CC0C43B31F4A5DA83
:101660001092CA3861E070E004C0C53C31F466E90C
:1016700070E08BEC97E006DC4BC0C33B79F4C8010B
:101680006EE370E00E94B913892BB1F560E070E061
:1016900083ECDF91CF911F910F9146CFC73C71F43E
:1016A00090912F38892F869586958F5F8370880F4C
:1016B000880F9370890F80932F381CC0C83CE1F4C9
:1016C00090912F38292F2695269580913438211115
:1016D00004C0382F3695369501C030E0330F330FF4
:1016E0009370930F90932F38220F220F8370820FE5
:1016F000809334389AD80CC0D0911738D1110AC0D1
:10170000CA3B41F460E070E086E59AE0A3DB03C0E9
:10171000D0E001C0D1E08D2FDF91CF911F910F91CB
:10172000089590912138992369F08093583888E082
:101730008093563881E08093573880916B3880933E
:1017400059380895F1C9CF93DF93EB018830A1F4A4
:1017500080E0E7DF80915738C82B10926538809180
:101760001C3880936C3810926038CD2B09F05EC025
:1017700081E080936D385AC0813059F46931710528
:1017800008F454C0C0915738C11150C080936D38CF
:10179000EDC0833069F5809165388F3F19F08F5F18
:1017A0008093653880911A38882371F040911B38F6
:1017B00022EC31E0429FC001439F900D1124C817D5
:1017C000D90710F00E94B00380912F386C2F8370DE
:1017D00044DA80913038882349F142EC51E0849F0B
:1017E0009001859F300D11242C173D07F8F452C04D
:1017F000813B91F481E090E00E94400392DF809170
:101800001938811113C080910C38811102C068977A
:1018100068F061E070E02AC0813ED9F3813841F47C
:1018200080910A3890E00E9440037BDFC0E09EC0B8
:10183000813C21F460910A3870E018C0823B81F449
:101840001092653880910D389091173891118091E0
:101850001838811103C086E990E0E5CF86E9E5CF2D
:10186000823E59F0823C29F466E970E08BEC97E007
:101870000CC0833921F41092573880E0D6CF833CD6
:1018800031F460E070E088E69AE0FCDACFCF843C87
:1018900031F47DD960E070E08CEC9AE0F6CF8D3BBE
:1018A00049F4F89491E088ED84BF90930001789416
:1018B000A895FFCF8F3C29F460E070E089EC93E0BD
:1018C000E4CF8A3B81F4CD2BD1F5C0911738CC23DE
:1018D00021F05DD91092173818C060E070E086E4FE
:1018E0009AE0B8DA43C0833B29F460E070E088EF07
:1018F0009DE0CBCF873C61F490912F3881E0890F38
:101900009C7F8370892B80932F380E9415048ECF83
:10191000883CA9F430912F38832F8370909134380C
:10192000811103C0292F237001C020E03C7F232BAD
:1019300020932F389C7F892B80933438E6CFC09139
:101940001738C11112C08A3C39F421D981E0809343
:1019500017380E9415040AC0863C39F418D960E093
:1019600070E08FED9FE08EDA01C0C1E08C2FDF9137
:10197000CF9108950F931F93CF9310927038809159
:10198000C8389091C9389C012F5F3F4F88279078C5
:10199000822B932B8093C8389093C938C0916E38AE
:1019A0000E943302C81731F110926D3880936E385F
:1019B0009091CA38882359F0892F80699F709F3091
:1019C00009F08F5F8093CA3880E090E00DC0892FC6
:1019D0008F7E95FD02C0806801C0806C8093CA38FC
:1019E0008091C8389091C9380E94F8011092C83887
:1019F0001092C9380091C8381091C93880916D385B
:101A00008823B1F0B80183E00E94A7010E94C101C0
:101A10000134110528F00F701127012B09F047C080
:101A20001092413881E0809397380E941B0232C0A7
:101A3000C091CA388C2F807F803B19F460E070E041
:101A400001C0B80181E00E94A701C4FF13C0C5FF17
:101A500002C0C8010CC008311105E0F01092C8386E
:101A60001092C938C062C093CA3880E090E00E94EA
:101A7000F80110C0CC2371F0C5FD0AC00231110578
:101A800048F0C064C093CA3880E090E00E94F8013A
:101A90000E94FC01C0914138C11105C00E949E0105
:101AA00081E080938B38CF5FCF71C0934138CF9165
:101AB0001F910F9108958091963881110E943704EB
:101AC00080917038811156CF0895EF92FF920F9355
:101AD0001F93CF93DF93EC0102E418E080E1E82E3E
:101AE00082E0F82E2097D9F080916638811119C0D4
:101AF00080916B38853028F485E00E949301C701FE
:101B000004C081E00E949301C8010197F1F781E0D0
:101B10000E949301D0DF0E94C1012197E3CF81E0B1
:101B200001C080E0DF91CF911F910F91FF90EF9066
:101B300008950F931F93CF93DF93C82F882311F03D
:101B400006EA02C00AE0C1E0D0916C3810E0809152
:101B5000203856D889E10E949405D0936C38C8018A
:101B6000B4DF809120384CD880E00E949405D09357
:101B70006C388AEF90E0A9DFC15049F78D2F40D82B
:101B80008AE992E0DF91CF911F910F919ECFCF9381
:101B9000DF9364E6E2D5282F892F6AE0DED5EC01D9
:101BA000222341F0822FC5DF8C2FC3DF8D2FDF91E1
:101BB000CF91BFCFC111F8CFF9CFCF93DF93D82FFB
:101BC000C3E080910A380E94940588EC90E07DDFA4
:101BD000DD2319F080E991E078DF80E00E94940530
:101BE00088EC90E072DFC15061F7DF91CF910895EA
:101BF000FF920F931F93CF93DF93D82F8B01C09148
:101C00005A3881E080935C38C33009F0EBC0F09023
:101C100060388D2F3AD8FF2051F0809160388111C3
:101C200006C060E070E083EA9BE02CD9DBC0D830CE
:101C300021F481E080930338D7C0D23C19F410928C
:101C40006038E4C0D13BC1F490910238012B49F4D3
:101C5000963610F08FEF03C0923018F481E0809335
:101C6000033880910338890F11F481E04AC1873627
:101C700008F447C186E645C1D13E31F4809103386E
:101C80008195809303380DC1D23B61F481E080934C
:101C9000033880910238823008F40BC18150809360
:101CA000023807C1D13009F0B5C00932110511F46D
:101CB000D093033890913B38892F880F97FD8095FA
:101CC00029E0829FC001112430913A38232F220F3E
:101CD00037FD209580910138289F90011124232FF2
:101CE000290F90913938892F880F97FD8095909111
:101CF0000038899FC0011124822F890F609102381A
:101D000070E0680F711D809160388130B9F4809166
:101D10005D3890915E3825E0969587952A95E1F794
:101D200024E730E0A901481B590B469FC001479F9B
:101D3000900D569F900D1124B9011BD5862F0E943E
:101D4000940500FD08C00E943C02817090913B38D0
:101D5000890F80933B3890913A3880913838890FB9
:101D600080933A380E943C0265E2F7D4809139387A
:101D7000980F909339380E943C028F7331F40E947F
:101D80003C026DE0EAD490933838C0910138CC23FE
:101D900039F00E943C028F7319F4C150C09301388E
:101DA0000E943C02811108C00E943C026EE0D5D422
:101DB0009093013810923A38C0910038C33038F00F
:101DC0000E943C028F7119F4C150C09300380E94E8
:101DD0003C028F7709F099C00E943C028770809383
:101DE000003893C0D83041F48091223880935A381B
:101DF00081E08093043887C0D13C31F460E070E02A
:101E000083EA9BE03FD87FC0D23C31F48C2F90E036
:101E1000019617C0D13C91F3D33C71F480916C389A
:101E20008F5F81700E940006EC2FF0E0E45FF74CBA
:101E300080916C38878B5EC0D43C59F48C2F90E035
:101E4000049665E070E0A9D48093223880935A38D4
:101E500051C0D13B21F5C23090F400FD54C0EC2FAD
:101E6000F0E0E45FF74C848D90910438891B883052
:101E700020F08F3F69F58EEF2BC088E029C0C43079
:101E800009F041C090912A3880910438890F82303E
:101E900010F482E026C0893720F188E722C0D13EC5
:101EA00031F48091043881958093043823C0D23B6B
:101EB000F9F481E080930438C23060F400FD23C05F
:101EC000EC2FF0E0E45FF74C848D8F3FE1F08F5F03
:101ED000848F19C0C430B9F480912A38833018F047
:101EE000815080932A3880912A380E9494050BC033
:101EF000D23E19F40E94150406C0D13031F081E0C1
:101F000010C08093023880E00CC00932110519F42A
:101F100081E08093043880916938080F0093693814
:101F2000F2CFDF91CF911F910F91FF9008950F9302
:101F30001F93CF93DF93D82F8B01883031F480919A
:101F40005C38882311F088E053DE8D2F807980394A
:101F500061F481E080935B38C0915C38C1110CC0A2
:101F600080910A380E94940524C0803839F4109278
:101F70005B3880E00E949405C0E01BC0D130C1F402
:101F8000C0915B38CC2359F080915C388823A1F351
:101F9000B80181E0DF91CF911F910F9129CE80E0B0
:101FA0000E9451020733114038F3D0936D3801C0BD
:101FB000C1E08C2FDF91CF911F910F910895FF9277
:101FC0000F931F93CF93DF93D82F8B01F0900A3894
:101FD0008079803951F5ED2FEF70E43020F01092C8
:101FE0005B38C0E036C091E090935B38F0E0E45F8E
:101FF000F74C84A12FEF280F263948F480930A3834
:1020000010925C3880911C3880936C380CC090938F
:102010005C388739D0F090E08759910965E070E02D
:10202000BCD380935A38C0E00BC0803841F4109282
:102030005B3880E00E94940581E080936638C1E0BF
:1020400080915B38882329F001C0C0E0B8018D2F52
:102050006EDFF0920A38D83021F4B80188E09CDABB
:1020600028C0D13039F480915B38811120C0B8018B
:1020700081E004C0D33041F4B80183E0DF91CF9117
:102080001F910F91FF9088CAD63C49F40E94C70562
:1020900060E070E083EA9BE00E94420708C0D73B03
:1020A00041F460E070E08AE59AE00E942A0780E04F
:1020B00001C08C2FDF91CF911F910F91FF90089558
:1020C0001F920F920FB60F9211242F933F938F936D
:1020D0009F93AF93BF93EF93FF9381E080930B06A1
:1020E00080919538882331F1E091943880911006E1
:1020F0009091110624E0880F991F2A95E1F7F0E0EE
:10210000EE0FFF1FDF01A057B74C8D939C93E45750
:10211000F74C208131812817390710F42F5F3F4F8A
:102120008217930710F4215031092083318381E015
:102130008093963881E080939538FF91EF91BF911D
:10214000AF919F918F913F912F910F900FBE0F9064
:102150001F9018951F920F920FB60F9211248F9314
:1021600081E080935301809370388F910F900FBE60
:102170000F901F9018951F920F920FB60F92112477
:102180008F931D9A81E080936F388F910F900FBECF
:102190000F901F901895F89480914000877F80934E
:1021A000400088EDA89584BF90910001907F9093A6
:1021B000000121E030E084BF2093610083E284B914
:1021C00088E080931004809311048093120480931C
:1021D00013048093140499E09093150480931604DB
:1021E00080931704809332048093330480933404E3
:1021F000809350048093510480935204809353043D
:1022000087E38093010A91E09093000A2FEF30E07A
:102210002093360A3093370A8091120481608093AC
:10222000120490935201809151018111FCCF81E4FD
:10223000809350010E941B02789481E00E94060264
:1022400060E070E082E697E00E942A07109266380C
:102250000E94C7050E943302811114C08CE098E3EC
:102260008093673890936838F89480E090E0D9D2F2
:10227000853A09F044C00091673810916838C1E090
:10228000D0E034C0C0E08C2F0E94940583E190E040
:102290001CDC8C2F86950E94940583E190E015DC70
:1022A0000E9433028823B9F0CF5FC03461F7609198
:1022B000883880912E38681B81E00E94CF030E94ED
:1022C0001504C6E98C2F0E94940584E090E0FDDBA4
:1022D000C150C1F7C3CFCC2309F4C0CF8C2F0E94CB
:1022E00094058DE090E0F1DBC150F5CFCE0199D29D
:1022F000F80181938F012196CC32D105B9F77894FA
:1023000080911A3881110E94B00360E070E084E986
:102310009AE00E942A0761E070E083EA9BE00E9455
:102320002A07552453942224239447E0342ECC24A6
:10233000C394D12C65E0462E7CEF672E73E0772E98
:10234000E8EE8E2EE3E09E2EF3EAAF2EFBE0BF2EEA
:102350000E94C1018091733890917438009751F0B8
:1023600060917138709172380E94420710927338F0
:102370001092743880916D38882309F466C080E02B
:102380000E94940550925201809151018111FCCF1D
:10239000F9E5F0935001809100068E7F809300064E
:1023A0000E9433028111FCCF0E94FC018091120433
:1023B00081608093120410929638109270381092B7
:1023C0006F3880916D38882369F180919738882320
:1023D00029F080915000897F826004C08091500074
:1023E000897F846080935000809150008160809349
:1023F00050008895809150008E7F8093500080918E
:102400006F38811110926D3880919638882321F0B1
:1024100020928B380E94370480917038882389F28B
:10242000A9DACFCF22E020930B3880911204887F65
:10243000809312040E941B0250925201809151011C
:102440008111FCCF31E43093500135DB10926638B6
:102450008091863890918738E3E0893C9E0719F592
:10246000CCE7D0E0FE0184918053803110F461DB31
:1024700011C010E0812F81708295880F807E0E94AC
:10248000940580E190E021DB1F5F193199F78AE91B
:1024900092E01BDB8CE291E018DB2196F0E0C03982
:1024A000DF0701F7D7C02DE0883F920799F03FE0A2
:1024B0008739930729F0EFE08F3D9E0709F0B2C0FE
:1024C00020915C38213009F0ADC020915B38222387
:1024D00009F4A8C0C0915A38EC2FF0E0E45FF74C43
:1024E000878980936C38C230F1F020F0C43009F451
:1024F0007CC02ECFD48D86E90E949405C11109C0FD
:10250000DA3220F4C3010197F1F707C081E090E0CF
:1025100003C08D2F869590E0D8DA80E00E94940564
:102520008D2F90E007C10E943C028F73E82EF12CA2
:102530000E943C02632D11D1E60102C0CC0FDD1FC9
:102540009A95E2F70E943C02642D07D1960102C0E1
:10255000220F331F9A95E2F7C20FD31F0E943C024D
:1025600090E0BE011AD1C80FD91FC739D10514F0A8
:10257000C6E9D0E08C2F0E949405C701A6DA8E012F
:1025800033E0159507953A95E1F7011101C001E097
:1025900010E0C7019ADAC01BD10BD7FF02C0C0E020
:1025A000D0E08C2F0E9494050E943C02837039F485
:1025B000C7018BDACE01959587950E949405C230AC
:1025C000D1053CF70E943C026DE0C7D0E60102C095
:1025D000CC0FDD1F9A95E2F70E943C0290E0BE010D
:1025E000C8D0C80FD91F80E0A2C0C0912A38CC0F34
:1025F000C73908F0C6E9D4E08C2F0E94940585E025
:1026000090E063DA80912A380E94940581E490E09A
:102610005CDAD15089F780ED92E057DA80E00E94D1
:10262000940596CE3AE088369307E9F488EE93E075
:102630004CDA80918A3886958695A9DA90918A3805
:102640009370892F880F9695890FA1DA809117389A
:10265000882381F0A0927338B09274381092713848
:102660001092723875CEE7E0813B9E0731F480917D
:1026700088388DDA88EE93E05DC0F7E088389F07F0
:10268000C1F480916E38811163CE80910A380E9426
:10269000940584E690E019DA80E00E949405209188
:1026A0002B38289DC001299D900D11248456910935
:1026B00041C08055974049F480E07FDA81E07DDABF
:1026C00080E07BDA80ED97E035C080912138882367
:1026D00099F180915738882379F120916B38909146
:1026E0005838291306C0822F0E949405109257383B
:1026F0002FCE60915638291760F4892F821B2DD078
:10270000811101C081E0820F0E9494058AE090E06F
:1027100011C03EE1639FA001112460915938691BEB
:1027200070E0CA013AD0EB0121968FEF820F0E9430
:102730009405CE01CAD90CCE80915000897F809338
:102740005000809150008160809350008895809166
:1027500050008E7F80935000FBCD991B79E004C020
:10276000991F961708F0961B881F7A95C9F78095D0
:102770000895AA1BBB1B51E107C0AA1FBB1FA617C8
:10278000B70710F0A61BB70B881F991F5A95A9F71A
:1027900080959095BC01CD01089597FB072E16F406
:1027A000009406D077FD08D0E4DF07FC05D03EF4A6
:1027B000909581959F4F0895709561957F4F0895ED
:1027C000A1E21A2EAA1BBB1BFD010DC0AA1FBB1F35
:1027D000EE1FFF1FA217B307E407F50720F0A21BA7
:1027E000B30BE40BF50B661F771F881F991F1A9414
:1027F00069F760957095809590959B01AC01BD013E
:10280000CF010895A29FB001B39FC001A39F700D97
:10281000811D1124911DB29F700D811D1124911DE8
:10282000089503D0808199270895FC01E050FC4E63
:102830000895262FFADF0080021611F004D00197C8
:1028400001970895262FAF93BF93E0E0F0E1328126
:1028500031FDFDCFDC01A050BC4E2C933DE934BFCF
:1028600023E020830196BF91AF910895F894FFCFA4
:102870000E38113814380001020100000000000079
:0E2880000100000000006D02960268026B026B
:10288E00080E1801010100046E0F320200010F0F35
:10289E000A6E6E820107070100001400000100009D
:1028AE000101030000000000294332020732000D2F
:0828BE0000781E98F2000000F2
:00000001FF
