:1000000077C1000092C1000090C100000C9436122C
:100010008CC100008AC1000088C100000C94251228
:1000200084C1000082C1000080C100007EC10000C8
:100030007CC100007AC1000078C1000076C10000D8
:1000400074C1000072C1000070C100006EC10000E8
:100050000C94DB116AC1000068C1000066C1000099
:1000600064C1000062C1000060C100005EC1000008
:100070005CC100005AC1000058C100003037313760
:100080002E323032332D31322D30332B31340000CB
:1000900001050414101115FF0F8D0A800C020ED6F5
:1000A00009DA0A120BEB0A910A1B0A9709160A6C65
:1000B00009C708D0082B080E08730744070A07C9A8
:1000C0000645060606C505840543050405C6048ADB
:1000D0000451041A04E503B203820355032A030002
:1000E00003DA02B50292027102520234021802F7D8
:1000F00001E501CE01B701A2018E0180016E01610F
:1001000001540147013F0133012A0124011C011858
:100110000111010D010A01070104010201000100A2
:1001200001FF00FF00FF00FF00FF00FF00FF00FFD6
:1001300000FF00FF00FF00FF00FF00FF00FF00FFC7
:1001400000FF00FF00FF00FF00FF00FF00FF00FFB7
:1001500000FF00FF00FF00FF00FF00FF00FF00FFA7
:1001600000FF00FF00FF00FF00FF00FF00FF00FF97
:1001700000FF00FF00FF00FF00FF00FF00FF00FF87
:1001800000FF00FF00FF00FF00FF00FF00FF00FF77
:1001900000FF00FF00FF00FF00FF00FF00FF00FF67
:1001A00000FF00FF00FF00FF00FF00FF00FF00FF57
:1001B00000FF00FF00FF00FF00FF00FF00FF00FF47
:1001C00000FF000000000000000000000000000030
:1001D000000000000000000000000000000000001F
:1001E000000000000000000000000000000000000F
:1001F00000000000000000000000000000000000FF
:1002000000000000000000000000000000000102EB
:1002100003040607080A0B0D0E1011131516181A01
:100220001C1E20222527292C2E303336383B3E41F8
:1002300044474A4D5154575B5E62666A6E72767AE5
:100240007E82878B9094999EA3A8ADB2B8BDC3C897
:10025000CED4DAE0E6ECF2F8FF0101020303040574
:10026000060708090B0C0D0F10121315171A1B1C8B
:100270001E20222426282A2C2E30323436383A3CAE
:100280003E40424446474A4C4E505255575A5D6094
:1002900064676B70747A7F858C939AA3ABB6C0CB7E
:1002A000D7E4F1FFFFFFFFFFFFFFFFFFFFFFFFFFAF
:1002B000FFFFFFFFFFFFFFFFFFFFFFFFFFFFFFFF4E
:1002C000FFFFFFFFFFFFFFFFFFFFFFFFFFFFFFFF3E
:1002D000FFFFFFFFFFFFFFFFFFFFFFFFFFFFFFFF2E
:1002E000FFFFFFFFFFFFFFFFFFFFFFFFFFFF00001C
:1002F00011241FBECFEFCDBFDFE3DEBF18E3A0E0C8
:10030000B8E3E0E3FCE202C005900D92AA33B10726
:10031000D9F728E3AAE3B8E301C01D92A13DB207D3
:10032000E1F70E9446120C94EF156ACEF89498ED0E
:1003300094BF809361008091630080FDFCCF78942E
:100340000895E0E0F6E082858160828780858160A3
:1003500080870895EEE9F8E320E030E0908199236A
:1003600039F02F5F3F4F339620313105B9F70BC07D
:10037000F901EE0FFF1F2E0F3F1FF901E256F74C58
:1003800080836183728308950F931F93CF93DF93CC
:10039000D0919E38DD2351F100919F381091A03803
:1003A000C0917B38C150C7FD0DC0EC2FEE0FFF0B85
:1003B000E458F74C0190F081E02DB8018D2F09959C
:1003C0008111F0CFEEE9F8E3838180838481958108
:1003D00081839283339688E3EB3CF807A9F7109268
:1003E000CB381092CC381092CD38D2CFDF91CF914C
:1003F0001F910F910895BC018091D038ABCF10921E
:10040000D0381092CE381092CF3881E080936B387C
:1004100008950F931F93CF93C82F0CEC18E0CC23B3
:1004200049F085E083DFC8010197F1F781E07EDFC5
:10043000C150F5CFCF911F910F910895E0E0F6E004
:1004400083E88083838180628383A0EAB0E08C911B
:100450008F7880648C938DE1868382E0818383E54D
:10046000828310929A3810929B386BCF82B185FBB1
:10047000882780F991E08927809374380895E09166
:100480000638F09107383196FB70F460E093063837
:10049000F093073880916E388B5A80936E38E491D0
:1004A00080916E388E0F0895FF920F931F93CF9314
:1004B000DF9300D01F92CDB7DEB72091E2AB309131
:1004C000E3AB4091E4AB29833A834B838E010F5F0A
:1004D0001F4F20E030E0682F70E0E1E0F0E098E0AE
:1004E000F92ED8019D918D01A901440F551FDB0103
:1004F00002C0B595A7954A95E2F7AD01437081F02A
:100500004130C9F4A92FB0E0AF0102C0440F551F1C
:100510009A95E2F740934204A05BBB4FFC9215C052
:10052000AF0102C0440F551F9A95E2F74093410472
:10053000409346040AC0DF0102C0AA0FBB1F9A9570
:10054000E2F7A0934104A09345042F5F3F4F23306F
:10055000310539F62396CDBFDEBFDF91CF911F91D4
:100560000F91FF900895811182E09ECF81118AE062
:100570009BCF811188E098CF811188E295CF8111BE
:1005800080E292CF811182E28FCF81118AE28CCFFB
:1005900081E0089590E0FC01E75AFD4FE4914E2F71
:1005A00050E0FC01ED53FE4FE4912E2F30E0FC01B2
:1005B000EE0FFF1FE956FF4F8591949140933A0A41
:1005C00050933B0A2093380A3093390A8093360AB5
:1005D0009093370A80917138811104C01092200ADB
:1005E0001092210A089590E0FC01E75AFD4FE49132
:1005F0002E2F30E0FC01ED53FE4FE491F0E08091AE
:100600003A0A90913B0A892B19F42F3F310551F09A
:1006100080913A0A90913B0A8F3F910541F4211550
:10062000310529F420933A0A30933B0A1DC080918A
:100630003A0A90913B0A8217930730F480913A0A64
:1006400090913B0A01960CC080913A0A90913B0A26
:100650002817390748F480913A0A90913B0A01978C
:1006600080933A0A90933B0A8091380A9091390A14
:100670008E179F0730F48091380A9091390A0196BD
:100680000CC08091380A9091390AE817F90748F4AC
:100690008091380A9091390A01978093380A909393
:1006A000390A80913A0A90913B0A2817390741F498
:1006B0002091380A3091390A81E0E217F30709F0F6
:1006C00080E00895CF93DF93CDB7DEB72697CDBFF7
:1006D000DEBF90910C3820918C3830918D382B579B
:1006E0003B4009F492E0843019F4609318381FC03D
:1006F0006623E9F0823019F427E9261B622F26E0F1
:10070000E5EEFBEADE01119601900D922A95E1F7E4
:100710009E012F5F3F4F280F311D280F311DF9011A
:1007200032970190F081E02DE90FF11D608326964C
:10073000CDBFDEBFDF91CF910895BF92CF92DF9200
:10074000EF92FF920F931F93CF93DF93EC014091B1
:100750000C3890911738992311F0E2E001C0E42F92
:10076000F0E0E45FF74C2281209309388581809383
:100770000838E92FF0E0E45FF74C3185622F70E034
:10078000442349F0313039F49B01280F311DC90150
:100790009595879538C0C617D707A4F1682F70E0E4
:1007A0006C177D0784F1411102C08C2F2CC0821B75
:1007B000032F10E001501109E82EF12CC701B801F8
:1007C0000E948615609367386695E62FF0E0822FC9
:1007D000C12CD12CB12CB316B1F0C601B8010E94C6
:1007E0007215822F860FCE0CDF1CAE01481B5109FB
:1007F00057FF03C0519541955109E417F5071CF4C3
:10080000B394E9CF822FDF91CF911F910F91FF9089
:10081000EF90DF90CF90BF900895ECE0F8E38685ED
:1008200080930A388389808B8093723808958091F1
:100830006438882351F09091713890936638809392
:100840006338109261381092623808952091903880
:1008500080E0E82FF0E0E250F4459081291710F095
:100860008E5FF7CF3197E081F0E0E157FF4F849141
:1008700008950F931F93CF93909190389150933791
:1008800010F480E08BC0C82FE82FEF7080916A3899
:10089000811122C0C295CF708091343828E0829FA8
:1008A000C001112468177907C0F420916938422FDC
:1008B00050E0481759078CF4222379F091E0809199
:1008C00070388F3008F490E081E0C23009F080E0A9
:1008D000C92FC82BCF5F36C0C2E0E73088F1E730C0
:1008E000A9F400913F3810E00F5F1F4FC8DD65E0AD
:1008F0000E9466159801290F311DC90166E070E05C
:100900000E94861580933F38FC012DC0E830D1F459
:1009100080917338882311F08FE001C083E090E06C
:1009200068237923672B51F480913F3890E001963A
:1009300066E070E00E94861580933F38E0913F3872
:10094000F0E011C080917338882319F07FDFE82F21
:100950000DC0CB019695879563E070E00E947215FB
:10096000FC01EE0FFF1FE057FF4FE491C33071F41D
:1009700080913E3890E0019663E170E00E9472152C
:1009800080933E38DC01A551B445CC91CC2321F0B5
:10099000C13019F0EE0F01C0E0E08E2FCF911F9112
:1009A0000F9182CDCF93DF93C82F809173388091C0
:1009B0007338811112C0CC2371F09091313880913D
:1009C0007138981740F4D091303840DFDC1708F4C4
:1009D000880F6ADD11C080E067DDC1110DC0109283
:1009E0003A0A10923B0A1092380A1092390A109271
:1009F000200A1092210A0EC0E091723884E0E89F2C
:100A0000F0011124E05FF3450190F081E02D8FEFBC
:100A10008C0F099580917138C81380937038C093FA
:100A20007138C0936F38C53010F485E005C0C4310B
:100A300010F483E001C081E0DF91CF9177CCCF93B8
:100A4000C091713889E18C0F873908F080E0AADF06
:100A500082E0DFDC8C2FCF91A5CFCF93C09171388E
:100A600080E0A0DF83E0D5DC8C2FCF919BCF81E0AD
:100A70000895662389F0813061F480918E389091D9
:100A80002F38891B681B60932F3882E080930B38C6
:100A900003C0635E60932E3880912E38873418F03F
:100AA00086E480932E380895609335380895E82FB2
:100AB000F0E0E45FF74C61A708957FEF780F409175
:100AC0001D3850911E38662359F021E030E002C0F5
:100AD000220F331F7A95E2F7CA01822B932B0AC0AB
:100AE00081E090E002C0880F991F7A95E2F7809527
:100AF0008423952380931D3890931E380895809306
:100B0000683890917138981718F4282F291B02C063
:100B1000292F281B30915B38311106C030912138C4
:100B2000332369F0223058F080935C3884E080935E
:100B30005A3881E080935B3890935D38089532CFC6
:100B4000CF93DF938CE098E380936C3890936D386B
:100B5000F894C0E0D0E0E0916C38F0916D38EC0F83
:100B6000FD1F60812196CE010E94D215CD32D105A4
:100B700091F765EA80E090E00E94D2157894DF91C9
:100B8000CF910895CF9310929C3880911006909148
:100B90006E38890F80936E3880919138882309F4DC
:100BA0004CC11092913890919A3880917338882373
:100BB00049F0809100068E7F8093000610929D3848
:100BC00010929A38911166C080910B38882329F0D1
:100BD00020919638309197381AC0209173388091BF
:100BE0009238909193382223B9F020919638309121
:100BF000973863E0369527956A95E1F7280F391FF6
:100C000073E0969587957A95E1F7281B390B209329
:100C100092383093933801C09C01C0912D38CC0F8D
:100C2000C45054E0369527955A95E1F740E050E0DE
:100C300060E070EC83E090E00E949915C20FC093D1
:100C4000903880915838882311F0815007C0C437FC
:100C500038F460E070E084E07DDB85E08093583814
:100C6000809173388111E0C08091A0008F788061FD
:100C70008093A0008EE18093060682E080930106B7
:100C800083E48093020681E080939A3810929B3827
:100C900058DBCAC0913009F0C7C080910B38882357
:100CA00041F080919838909199388093943890933E
:100CB00095382091201180912111A0919438B09104
:100CC000953830E48302A019B109112430E00E9464
:100CD000BB15DC01CB01905EAF4FBF4F892F9A2F20
:100CE000AB2FBB2720912F38FC0136E0F695E79516
:100CF0003A95E1F7022E000C330BA9014351514004
:100D00004E0F5F1F40938E3850938F38BC0145E0E3
:100D1000769567954A95E1F780910B3881112AC045
:100D200080914738E82FF0E0EE0FFF1FE85BF74CAB
:100D300040815181DB01A41BB50BAD016083718340
:100D40008F5F87708093473880912E3890E08D5E5A
:100D50009E4F821B930B880F991F9B01281B390BF9
:100D6000C9019D01220F331F220F331F820F931FD2
:100D700023E00EC0E8E4F8E36193719388E3E8357B
:100D8000F807D1F7CDCF009709F00196215029F04F
:100D900018161906C4F70197F9CF18161906E4F4C6
:100DA00057FD39C02091463812160CF1880F991F53
:100DB000BC016350710977FF02C06F5F7F4F75956B
:100DC00067951616170614F061E070E088E1861B3F
:100DD0008093463885E026C08C3FAFEF9A07DCF45D
:100DE00057FF19C02091463827FF05C02450281B03
:100DF0002093463818C024EE281B209346382091B3
:100E00009038263780F06CEF7FEF681B790B759573
:100E1000679586E007C080919038853720F060E0C4
:100E200070E087E097DA0ADB80910B38882329F09D
:100E300080910B38815080930B38CF910895813089
:100E400019F410921A380895823019F460931B38FF
:100E50000895833019F4609319380895843019F493
:100E600060930D380895853011F46093213808950A
:100E7000CF93DF9390917238981759F0C82FD09183
:100E8000713880E08FDDC09372388D2FDF91CF9164
:100E900089CDDF91CF910895883039F4109264386C
:100EA000109261381092623845C0813B81F4809184
:100EB00064388150833008F03FC083E08093643809
:100EC00080936338109261381092623835C0853B48
:100ED000B1F4CB016EE370E00E947215892B51F5DD
:100EE000809164388A3F30F58B5F809364388093BB
:100EF00063381092613810926238A1DD1BC08130D6
:100F0000D9F48091613890916238019688382EE04A
:100F1000920728F480936138909362380BC0109246
:100F200061381092623880916438882319F08150BA
:100F30008093643880E0089581E00895833019F447
:100F4000609330380895843019F4609331380895EF
:100F5000823019F4609334380895611160932D380C
:100F60000895FF920F931F93CF93DF938C01EB01B2
:100F7000F42E80918C3890918D38892B31F0E0914E
:100F80008C38F0918D3889E0099500938C38109356
:100F90008D38012B39F0E0918C38F0918D38BE01FD
:100FA0008F2D099581E080936B38DF91CF911F9150
:100FB0000F91FF900895CF93DF93E0917B38EE235C
:100FC00059F0E150E0937B38F0E0EE0FFF1FE4585A
:100FD000F74CC081D18102C0C0E0D0E0E0917B3805
:100FE000EE2341F0F0E0EE0FFF1FE658F74C808152
:100FF000918102C080E090E04AE060E070E0B1DF03
:10100000CE01DF91CF910895883029F4109259389C
:101010001092403815C0813001F5909140389111FF
:1010200007C06032710570F180934038E8D92AC05A
:10103000913089F46B3B710528F082E08093403851
:1010400080E01FC061157105E9F06270862F880F7E
:10105000880F8E5E16C0AFDF15C0813811F0813E5B
:1010600089F491E090934038813E21F48091593881
:10107000865F03C0809159388F5F80935938BFD9FC
:101080008BE490DC80E008959C0190917B3898304F
:1010900088F4E92FF0E0EE0FFF1FE458F74C2083AF
:1010A00031839F5F90937B3848E0C9015ADF80917C
:1010B0007B3808958FEF08950F931F93CF93DF939D
:1010C000EC018B0178DFB801CE01DF91CF911F9148
:1010D0000F91DACF813C29F460E070E08BEE9CE068
:1010E00006C0823C39F460E070E08DE99BE0E4DF0B
:1010F00080E0089581E00895843011F580918C3866
:1011000090918D382FE08636920729F469E170E0DE
:1011100085EE98E013C0855E984061F49091713837
:10112000923040F0892F869596959695890FE7DC49
:1011300080E0089560E070E08BEE9CE0BDDFF8CFCA
:1011400081E00895813C29F460E070E08BEE9CE042
:1011500006C0823C31F460E070E08AE698E0ACDFE3
:1011600016C0813B49F4CB016EE370E00E9472151A
:10117000892B69F464DC0BC0813E59F4CB016EE32A
:1011800070E00E9472156F5F60932C38D9DC80E0AC
:10119000089581E00895813C29F460E070E08BEED1
:1011A0009CE006C0823C31F460E070E082EA98E0A6
:1011B00083DF07C0873B39F460E070E087E89BE09D
:1011C00063DF80E0089581E00895BF92CF92DF92BF
:1011D000EF92FF920F931F93CF93DF93182FEB01A2
:1011E00080911C3880937238D0900938F09008387C
:1011F00080910C38882319F0B090673802C0BB2466
:10120000B394C0900D38809117388111C090183870
:10121000CC2051F031E0C31621F080910A388F15AF
:1012200018F0F6E9EF2E01C0EF2C00916438BE01F2
:10123000812F32DE20916438222339F001110CC055
:10124000809171388093663807C0002329F060E0F0
:1012500070E08BEE9CE036C0812F8D7F8830D9F412
:10126000109260381A3019F4C0910A38D0E08D2DF0
:1012700090E08C179D0738F48F2D90E0C817D907A0
:1012800010F4C0930A38CE0158DA39DC81E080933B
:10129000053800E0BAC1113CD1F2123C59F48091FA
:1012A00071388E1510F48E2D02C080910A3827DC1B
:1012B000BEDAEFCF143C41F480E074DB60E070E014
:1012C00080E09CE0F9DEE5CF8FE4810F823008F00A
:1012D00061C080910C38882341F0CE0168E170E054
:1012E0000E947215892B31F0D4CF6091143870E0D0
:1012F000CE01F6CF00915B380111CBCF80917138D0
:10130000209761F4123B11F48FEF05C08F15E0F7C1
:10131000D81648F181E08093053825C02091143813
:1013200030E066E371E0269FA001279F500D369FB5
:10133000500D11244C175D0710F48F1528F76CE63B
:1013400072E0269FA001279F500D369F500D11245B
:101350004C175D0740F4D81630F071DB60E070E0A8
:1013600080E09CE0A9DEC0917138209105383B2DCA
:101370002303C00111248C0F911DDFD980930A38FB
:10138000C81719F0F81201C068DB80910A38B7DB82
:101390004EDA3BC18FE1810F823020F48091053815
:1013A000819575CF113009F084C0A99711F410937D
:1013B0000538222371F1C0916638C29F9001112433
:1013C000E0916338F0E0C901BF010E948615462F05
:1013D000C9018C1B9109BF010E948615242F261B71
:1013E00080916138909162386EE370E00E947215CE
:1013F000269FC001279F900D11246CE370E00E948E
:101400007215461B642F09F461E060936F38609396
:101410006838C0916F38209171388C2F90E0821B12
:10142000910960914338709144386F5F7F4F6093AA
:10143000433870934438009709F42BCF97FF05C0C9
:10144000293730F040E450E005C040E052E002C0EF
:1014500040E051E05695479597FD01969595879503
:101460000097C1F74617570708F013CFC21710F4BB
:10147000CFEF03C02C1710F4C1E0C20FE091723817
:1014800084E0E89FF0011124E05FF3450280F381DE
:10149000E02D8FEF8C0F0995882331F0D0916F38B4
:1014A0008C2F80DAD0936F381092433810924438E2
:1014B000F0CE1530A1F4809171388D3308F4E9CE67
:1014C00090E08C1B9D0B8C33910534F0873991058E
:1014D0006CF186E990E02AC08CE390E027C01630DA
:1014E000B9F49091713880916838981708F0D1CE8E
:1014F000C90FD11D90E08C179D0734F0CC33D10576
:1015000024F4CCE3D0E001C0EC01C0936F38C1CE2D
:10151000173079F490916F3880917138891710F4F1
:101520008F5F04C0981708F0B4CE815080936F3855
:10153000B0CE133C19F0163C41F517C060911D3830
:1015400070911E3880E090E020E0AB01082E02C0D0
:10155000569547950A94E2F74170240F019688301A
:10156000910599F7223008F04FC081E090910C3836
:10157000911180E080930C38E3DA6FDA8091713852
:1015800090E0DBD880930A3892CE00911738011191
:101590003BC0133B49F4CD2B09F07BCECC2011F09E
:1015A00086E9E82E8E2D04C0133E21F480910A387E
:1015B000A6DA2BC0153C61F48091713880930A380B
:1015C00080E0F0D960E070E082E191E175DD1DC05E
:1015D000173B29F460E070E087E79BE013C01A3CFA
:1015E00059F48091713880931A38809172388093C1
:1015F0001F38A6DA24DA09C01A3B31F460E070E043
:101600008FE79BE041DD01C001E0802FDF91CF91AA
:101610001F910F91FF90EF90DF90CF90BF900895B2
:101620000F931F93CF938B01C42F883091F4809137
:101630007238809342381092413880E0B3D980915B
:10164000743881114FC0809141388F5F8093413849
:1016500033C0982F907F903B21F5809141384817F7
:10166000E8F08150883040F490916538992321F05A
:10167000909172388913FCDBC8016DE570E00E941F
:101680007215069749F4809141388F5F80934138F5
:10169000C81740F188E303C082E101C080E082D92D
:1016A00021C0903E79F4809141388823A1F04817F9
:1016B00090F080914238DCDB60E070E084E098E0FC
:1016C000E3DC10C08A3049F4609159388091413888
:1016D000F901099535DA6FDC05C0893019F480917C
:1016E0004238C6DB80E0CF911F910F91089522E62A
:1016F00033E043E095CF22E633E044E091CF2FE1A1
:1017000037E045E08DCF2EE937E044E089CF29E38B
:1017100035E042E085CF24E535E041E081CF27E5A3
:1017200035E043E07DCF91E0909365382DE535E0DD
:1017300048E076DF109265380895CF93C09117384E
:10174000C11123C0813C29F460E070E08BEE9CE085
:1017500006C0823C31F460E070E08BEC98E0ACDCD9
:1017600015C0833C51F48091203890E00196877039
:10177000992780932038E4D909C0873B31F460E091
:1017800070E083E89BE080DC01C0C1E08C2FCF914A
:101790000895CF93833C21F54091723860911D38B4
:1017A00070911E38842F98E0282F30E02F5F3F4F34
:1017B00027703327822FFB0102C0F695E7952A9503
:1017C000E2F7E0FF0AC04817B9F052DB80917238A7
:1017D00080931C38B5D9C0E010C0915029F7F3CFE1
:1017E000C0911738C11108C0893B31F460E070E046
:1017F00083E99BE049DC01C0C1E08C2FCF910895C3
:101800000F931F93CF93DF93C82F8B01873BC9F4AE
:1018100080E0C8D881E080936A38C8018F73992727
:10182000892B09F0A4C090913338892F8F708F5F76
:10183000292F207F6BE00E946615922B90933338FE
:1018400096C080798039B1F420910E3890910F388C
:101850008C2F8F70813021F4822F921748F407C0AB
:1018600080911A38811104C0822F291708F4892F1A
:1018700099D80FC0803811F480E094D8C83049F46A
:101880001092693860E070E0809133380E9439042A
:101890007AC0C13039F40931110508F480C0C09311
:1018A000733865C0C330E1F4809169388F3F19F017
:1018B0008F5F8093693880911A38882309F457C064
:1018C00040911B3822EC31E0429FC001439F900DB4
:1018D00011240817190708F44AC00E940D0447C0D4
:1018E000C33C31F4ACD860E070E08BEE9CE014C0F7
:1018F000C43C21F460910A3870E00CC0C43B31F460
:10190000ACD81092D03861E070E004C0C53C31F42E
:1019100066E970E085EE98E0CFDB41C0C33B79F427
:10192000C8016EE370E00E947215892B61F560E0DA
:1019300070E083ECDF91CF911F910F912ACFC73CCC
:10194000E1F480913338982F92959F709F5F937048
:1019500040E1949F900111248F70822B8093333843
:1019600060E070E00E943904EBD869D818C0B80173
:10197000809133380E94390412C0C73E21F410927E
:101980006A38DED80CC0D0911738D1110AC0CA3BD2
:1019900041F460E070E08BE89BE076DB03C0D0E0D0
:1019A00001C0D1E08D2FDF91CF911F910F9108954C
:1019B00090912138992369F080935C3888E0809376
:1019C0005A3881E080935B388091713880935D381C
:1019D00008950C94D204CF93DF93EB018830A1F4E7
:1019E00080E0E6DF80915B38C82B109269388091E7
:1019F0001C388093723810926438CD2B09F05EC089
:101A000081E0809373385AC0813059F4693171058F
:101A100008F454C0C0915B38C11150C08093733832
:101A200013C1833069F5809169388F3F19F08F5F5A
:101A30008093693880911A38882371F040911B385F
:101A400022EC31E0429FC001439F900D1124C81742
:101A5000D90710F00E940D04BE01809132380E9417
:101A6000390480913538882349F142EC51E0849F54
:101A70009001859F300D11242C173D07F8F453C0B9
:101A8000813B91F481E090E00E949D0391DF809181
:101A90001938811113C080910C38811102C06897E8
:101AA00068F061E070E02AC0813ED9F3813841F4EA
:101AB00080910A3890E00E949D037ADFC0E0C4C0A4
:101AC000813C21F460910A3870E018C0823B81F4B7
:101AD0001092693880910D3890911738911180914A
:101AE0001838811103C086E990E0E5CF86E9E5CF9B
:101AF000823E59F0823C29F466E970E085EE98E078
:101B00000CC0833921F410925B3880E0D6CF833C3F
:101B100031F460E070E08DE99BE0CEDACFCF843C19
:101B200039F40E941F0560E070E080E09CE0F5CF92
:101B30008D3B49F4F89491E088ED84BF90930001C7
:101B40007894A895FFCF8F3C29F460E070E087E39C
:101B500095E0E3CF8A3B91F4CD2B09F053C0C091BF
:101B60001738CC2329F00E941F051092173847C060
:101B700060E070E08BE79BE087DA66C0833B29F486
:101B800060E070E086E69FE0C8CF873CC1F48091BA
:101B90003238982F92959F709F5F937040E1949F89
:101BA000900111248F70822B8093323860E070E0B6
:101BB0000E9439040E94A0050E941F057FCF873B29
:101BC000D1F481E080936A38CB018F739927892BF8
:101BD00061F490913238892F8F708F5F292F207F89
:101BE0006BE074D7922B90933238BE0180913238DB
:101BF0000E94390463CF873E29F410926A380E940C
:101C0000A0055CCFC0911738C1111DC08A3C41F4BA
:101C10000E941F0581E0809317380E94A00514C020
:101C2000853C39F40E941F0560E070E082E191E19B
:101C300008C0863C41F40E941F0560E070E08AE520
:101C400091E13ADA01C0C1E08C2FDF91CF91089584
:101C50000F931F93CF93109276388091CE38909146
:101C6000CF389C012F5F3F4F88279078822B932B92
:101C70008093CE389093CF38C09174380E9436024A
:101C8000C81731F110927338809374389091D0381E
:101C9000882359F0892F80699F709F3009F08F5FEA
:101CA0008093D03880E090E00DC0892F8F7E95FD25
:101CB00002C0806801C0806C8093D0388091CE389B
:101CC0009091CF380E94FB011092CE381092CF38FD
:101CD0000091CE381091CF38809173388823B1F0BD
:101CE000B80183E00E94AA010E94C40101341105D9
:101CF00028F00F701127012B09F047C010924538CA
:101D000081E080939D380E941E0232C0C091D0387D
:101D10008C2F807F803B19F460E070E001C0B80137
:101D200081E00E94AA01C4FF13C0C5FF02C0C80120
:101D30000CC008311105E0F01092CE381092CF3867
:101D4000C062C093D03880E090E00E94FB0110C0D8
:101D5000CC2371F0C5FD0AC00231110548F0C06402
:101D6000C093D03880E090E00E94FB010E94FF0108
:101D7000C0914538C11105C00E94A10181E0809346
:101D80009138CF5FCF71C0934538CF911F910F919C
:101D9000089580919C3881110E94C2058091763807
:101DA000811156CF0895EF92FF920F931F93CF9317
:101DB000DF93EC0102E418E080E1E82E82E0F82EE7
:101DC0002097D9F080916B38811119C080917138BA
:101DD000853028F485E00E949601C70104C081E0A7
:101DE0000E949601C8010197F1F781E00E949601D7
:101DF000D0DF0E94C4012197E3CF81E001C080E0E1
:101E0000DF91CF911F910F91FF90EF9008950F9365
:101E10001F93CF93DF93C82F882311F006EA02C0E7
:101E20000AE0C1E0D091723810E08091203820D8CB
:101E300089E10E94D204D0937238C801B4DF809146
:101E4000203816D880E00E94D204D09372388AEFEE
:101E500090E0A9DFC15049F78D2F0AD88AE992E0B6
:101E6000DF91CF911F910F919ECFCF93DF9364E6C7
:101E70002DD6282F892F6AE029D6EC01222341F0A4
:101E8000822FC5DF8C2FC3DF8D2FDF91CF91BFCF86
:101E9000C111F8CFF9CFCF93DF93D82FC3E0809152
:101EA0000A380E94D20488EC90E07DDFDD2319F02F
:101EB00080E991E078DF80E00E94D20488EC90E035
:101EC00072DFC15061F7DF91CF910895FF920F93B8
:101ED0001F93CF93DF93D82F8B01C0915E3881E0A1
:101EE00080936038C43009F0EDC0F09064388D2FD5
:101EF0000E944C07FF2051F080916438811106C088
:101F000060E070E08BEE9CE0D7D8DCC0D83021F4E4
:101F100081E080930338D8C0D23C19F41092643821
:101F2000E6C0D13BC1F490910238012B49F49E36B2
:101F300010F08FEF03C0923018F481E080930338E3
:101F400080910338890F11F481E04EC18F3608F477
:101F50004BC18EE649C1D13E31F480910338819561
:101F60008093033815C1D23B61F481E0809303383C
:101F700080910238823008F413C181508093023876
:101F80000FC1D13009F0B7C00932110511F4D09357
:101F9000033890913D38892F880F97FD809527E071
:101FA000829FC001112430913C38232F220F37FD2E
:101FB000209580910138289F90011124232F290F0B
:101FC00090913B38892F880F97FD8095909100382C
:101FD000899FC0011124822F890F6091023870E01F
:101FE000680F711D809164388130B9F48091613837
:101FF0009091623825E0969587952A95E1F724E738
:1020000030E0A901481B590B469FC001479F900D26
:10201000569F900D1124B90165D5862F0E94D204D8
:1020200000FD08C00E943F02817090913D38890FE9
:1020300080933D3890913C3880913A38890F809355
:102040003C380E943F0265E241D580913B38980FB1
:1020500090933B380E943F028F7331F40E943F02FD
:102060006DE034D590933A38C0910138CC2339F0E3
:102070000E943F028F7319F4C150C09301380E942F
:102080003F02811108C00E943F026BE01FD5909370
:10209000013810923C38C0910038C33038F00E94AB
:1020A0003F028F7119F4C150C09300380E943F0263
:1020B0008F7709F0A5C00E943F0266E007D5909394
:1020C00000389EC0D83041F48091223880935E3829
:1020D00081E0809304388AC0D13C39F460E070E03C
:1020E0008BEE9CE00E945C0881C0D23C31F48C2FC6
:1020F00090E0019617C0D13C89F3D33C71F48091F4
:1021000072388F5F87700E943807EC2FF0E0E45F31
:10211000F74C80917238878B56C0D43C59F48C2F81
:1021200090E0059666E070E0F1D4809322388093C9
:102130005E3849C0D13B51F5C23090F400FD56C025
:10214000EC2FF0E0E45FF74C858D90910438891B0B
:10215000883020F08F3F99F58EEF31C088E02FC096
:10216000C53009F043C090912B3880910438890F15
:10217000823010F482E003C0893708F088E780934A
:102180002B3880912B380E94D20430C0D13E31F4DC
:102190008091043881958093043815C0D23B89F42E
:1021A00081E080930438C23018F500FD1FC0EC2F89
:1021B000F0E0E45FF74C858D8F3FC1F08F5F858F36
:1021C00015C0D23E19F40E94A00510C0D53C41F4C0
:1021D00060E070E082E191E10E945C0880E0D3CF92
:1021E000D13071F081E018C08093023880E014C0D3
:1021F000C530E1F780912B38833018F28150BFCF82
:102200000932110519F481E08093043880916E3809
:10221000080F00936E38EACFDF91CF911F910F9195
:10222000FF9008950F931F93CF93DF93D82F8B01C7
:10223000883031F480916038882311F088E046DEE0
:102240008D2F8079803961F481E080935F38C0916F
:102250006038C1110CC080910A380E94D20424C099
:10226000803839F410925F3880E00E94D204C0E0D8
:102270001BC0D130C1F4C0915F38CC2359F080919C
:1022800060388823A1F3B80181E0DF91CF911F91DD
:102290000F911CCE80E00E9454020733114038F3A6
:1022A000D093733801C0C1E08C2FDF91CF911F9183
:1022B0000F910895FF920F931F93CF93DF93D82F21
:1022C0008B01F0900A388079803951F5ED2FEF704D
:1022D000E43020F010925F38C0E036C091E0909377
:1022E0005F38F0E0E45FF74C81A52FEF280F263927
:1022F00048F480930A381092603880911C3880939B
:1023000072380CC0909360388739D0F090E08759CC
:10231000910966E070E0FAD380935E38C0E00BC0AC
:10232000803841F410925F3880E00E94D20481E04E
:1023300080936B38C1E080915F38882329F001C019
:10234000C0E0B8018D2F6EDFF0920A38D83021F44A
:10235000B80188E055DA28C0D13039F480915F386F
:10236000811120C0B80181E004C0D33041F4B8012C
:1023700083E0DF91CF911F910F91FF9041CAD63C2E
:1023800049F40E941F0560E070E08BEE9CE00E9423
:102390005C0808C0D73B41F460E070E08FE89BE048
:1023A0000E94440880E001C08C2FDF91CF911F91E3
:1023B0000F91FF9008951F920F920FB60F92112464
:1023C0002F933F938F939F93AF93BF93EF93FF937D
:1023D00081E080930B0680919B38882331F1E09156
:1023E0009A38809110069091110624E0880F991F69
:1023F0002A95E1F7F0E0EE0FFF1FDF01AA56B74C78
:102400008D939C93EE56F74C208131812817390724
:1024100010F42F5F3F4F8217930710F421503109BA
:102420002083318381E080939C3881E080939B38C6
:10243000FF91EF91BF91AF919F918F913F912F911C
:102440000F900FBE0F901F9018951F920F920FB60E
:102450000F9211248F9381E08093530180937638FB
:102460008F910F900FBE0F901F9018951F920F9293
:102470000FB60F9211248F931D9A81E080937538C7
:102480008F910F900FBE0F901F901895F894809128
:102490004000877F8093400088EDA89584BF90918D
:1024A0000001907F9093000121E030E084BF2093F1
:1024B000610083E084B98EE088B988E080931004DD
:1024C0008093110480931204809313048093140466
:1024D00099E09093150480931604809317048093D9
:1024E00032048093330480933404809335048093C2
:1024F000500487E38093010A91E09093000A2FEF44
:1025000030E02093360A3093370A809112048160BC
:102510008093120490935201809151018111FCCF5C
:1025200081E4809350010E941E02789481E00E9411
:10253000090260E070E08CE798E00E944408109285
:102540006B380E941F050E943602811114C08CE076
:1025500098E380936C3890936D38F89480E090E025
:1025600019D3853A09F044C000916C3810916D3848
:10257000C1E0D0E034C0C0E08C2F0E94D20483E1DF
:1025800090E011DC8C2F86950E94D20483E190E0CC
:102590000ADC0E9436028823B9F0CF5FC03461F7AD
:1025A00060918E3880912F38681B81E00E94390538
:1025B0000E94A005C6E98C2F0E94D20484E090E01E
:1025C000F2DBC150C1F7C3CFCC2309F4C0CF8C2FAD
:1025D0000E94D2048DE090E0E6DBC150F5CFCE0141
:1025E000D9D2F80181938F012196CE32D105B9F766
:1025F000789480911A3881110E940D0460E070E097
:1026000089EC9BE00E94440888EE93E0CCDB60E517
:1026100070E085EE98E00E944408552453942224EB
:1026200023944CEF642E43E0742E57E0352E6DE07A
:10263000462E78EEA72E73E0B72EEBEECE2EECE012
:10264000DE2EFEE88F2EF0E09F2E0E94C4018091C6
:10265000793890917A38009751F06091773870917D
:1026600078380E945C081092793810927A388091FC
:102670007338882309F466C080E00E94D204509227
:102680005201809151018111FCCFF9E5F093500185
:10269000809100068E7F809300060E943602811191
:1026A000FCCF0E94FF01809112048160809312048C
:1026B00010929C3810927638109275388091733849
:1026C000882369F180919D38882329F080915000FA
:1026D000897F826004C080915000897F84608093EC
:1026E00050008091500081608093500088958091C7
:1026F00050008E7F80935000809175388111109228
:10270000733880919C38882321F0209291380E9460
:10271000C20580917638882389F29ADACFCF22E0F9
:1027200020930B3880911204887F809312040E94BA
:102730001E0250925201809151018111FCCF81E41F
:102740008093500126DB10926B3880918C389091E9
:102750008D38E8E0853E9E0779F4C091713880910C
:1027600031388C1708F07DC10E942604C33308F06D
:10277000880F0E94540275C1F5E087339F0711F559
:10278000CCE7D0E0FE0184918053803110F43FDB30
:1027900011C010E0812F81708295880F807E0E9489
:1027A000D20480E190E0FFDA1F5F193199F78AE9DE
:1027B00092E0F9DA8CE291E0F6DA21968C169D0629
:1027C00009F7FDC0FFE086369F0799F021E18231CD
:1027D000920729F0E1E18A359E0709F0D8C02091DF
:1027E0006038213009F0D3C020915F38222309F4EA
:1027F000CEC0C0915E38EC2FF0E0E45FF74C8789E3
:1028000080937238C23009F138F0C33009F43DC00A
:10281000C53009F49FC019CFD58D86E90E94D20436
:10282000C11109C0DA3220F4C3010197F1F707C0E2
:1028300081E090E003C08D2F869590E0B4DA80E0CF
:102840000E94D2048D2F90E00AC1D0910A38C0E0D6
:10285000C11102C081E003C0C53019F485E00E94B7
:1028600038078D2F0E94D20481E290E09CDA80E04C
:102870000E94D20482E490E096DACF5FCA3041F73A
:1028800080911C3880937238E0CE0E943F028F7393
:10289000E82EF12C0E943F02632D18D1C1E0D0E058
:1028A0008E0102C0000F111F9A95E2F70E943F02AD
:1028B00065E00CD102C0CC0FDD1F9A95E2F70C0F3A
:1028C0001D1F0E943F0290E0B80120D1E801C80F0F
:1028D000D91FC739D10514F0C6E9D0E08C2F0E946A
:1028E000D204C70160DA8E0133E0159507953A9559
:1028F000E1F7011101C001E010E0C70154DAC01B8B
:10290000D10BD7FF02C0C0E0D0E08C2F0E94D204D0
:102910000E943F02837039F4C70145DACE019595D4
:1029200087950E94D204C230D1053CF70E943F0235
:10293000642DCCD0C1E0D0E002C0CC0FDD1F9A9551
:10294000E2F70E943F0290E0BE01CCD0C80FD91F31
:1029500080E082C0C0912B38CC0FC73908F0C6E99F
:10296000D4E08C2F0E94D20485E090E01CDA8091A4
:102970002B380E94D20481E490E015DAD15089F717
:1029800080ED92E010DA80E00E94D2045ECEFBE09F
:102990008D399F07E9F488EE93E005DA809190384D
:1029A0008695869562DA909190389370892F880F7A
:1029B0009695890F5ADA80911738882381F0C09252
:1029C0007938D0927A3810927738109278383DCE94
:1029D00028E08B3C920731F480918E3846DA88EEFD
:1029E00093E03DC0E8E0823A9E07C1F480917438DC
:1029F00081112BCE80910A380E94D20484E690E0A7
:102A0000D2D980E00E94D20420912C382A9DC001A6
:102A10002B9D900D11248456910921C08A5698400F
:102A200001F580E038DA81E036DA80E034DA80EDF2
:102A300097E015C060915A38291758F18EE1689FC8
:102A4000A001112460915D38691B70E0CA015ED05D
:102A5000EB0121968FEF820F0E94D204CE01A3D901
:102A6000F4CD80912138882301F180915B3888234F
:102A7000E1F02091713890915C382913DBCF822FDF
:102A80000E94D20410925B3880915D388093703838
:102A9000DCCD892F821B1AD0811101C081E0820F09
:102AA0000E94D2048AE090E0DACF80915000897FC2
:102AB00080935000809150008160809350008895F1
:102AC000809150008E7F80935000BFCD991B79E09C
:102AD00004C0991F961708F0961B881F7A95C9F7AE
:102AE00080950895AA1BBB1B51E107C0AA1FBB1FFD
:102AF000A617B70710F0A61BB70B881F991F5A958A
:102B0000A9F780959095BC01CD01089597FB072EFC
:102B100016F4009406D077FD08D0E4DF07FC05D05A
:102B20003EF4909581959F4F0895709561957F4FE4
:102B30000895A1E21A2EAA1BBB1BFD010DC0AA1FFE
:102B4000BB1FEE1FFF1FA217B307E407F50720F016
:102B5000A21BB30BE40BF50B661F771F881F991F91
:102B60001A9469F760957095809590959B01AC01DA
:102B7000BD01CF010895A29FB001B39FC001A39FE3
:102B8000700D811D1124911DB29F700D811D1124A6
:102B9000911D089503D0808199270895FC01E0508C
:102BA000FC4E0895262FFADF0080021611F004D0A3
:102BB000019701970895262FAF93BF93E0E0F0E1CE
:102BC000328131FDFDCFDC01A050BC4E2C933DE99C
:102BD00034BF23E020830196BF91AF910895F8940C
:022BE000FFCF25
:102BE2000203010E381138143802010000000000FF
:102BF200000001000000000000000001000074015C
:102C020084028C0394049C05A406B007FF07CA0241
:102C1200F302B302C802B602C802B902C802BC0279
:0E2C2200C802BF02C802C202C802C502C80230
:102C3000060B180101010004960132020001011483
:102C40001996827D010705000000000000010000C8
:102C50000001040000000000002943320207320096
:0A2C6000329719390400781E98001D
:00000001FF
